{
  "address": "0x76A85E639FC5e6D86fCf02a8a862C5c648B7e81e",
  "abi": [
    {
      "anonymous": false,
      "inputs": [
        {
          "indexed": false,
          "internalType": "string",
          "name": "pelletId",
          "type": "string"
        },
        {
          "indexed": false,
          "internalType": "string",
          "name": "pelletDetailsCid",
          "type": "string"
        }
      ],
      "name": "AddPelletEvent",
      "type": "event"
    },
    {
      "anonymous": false,
      "inputs": [
        {
          "indexed": false,
          "internalType": "string",
          "name": "lotId",
          "type": "string"
        },
        {
          "indexed": false,
          "internalType": "string",
          "name": "batchingCid",
          "type": "string"
        }
      ],
      "name": "BatchingEvent",
      "type": "event"
    },
    {
      "anonymous": false,
      "inputs": [
        {
          "indexed": false,
          "internalType": "string",
          "name": "ffiRollId",
          "type": "string"
        },
        {
          "indexed": false,
          "internalType": "string",
          "name": "soId",
          "type": "string"
        },
        {
          "indexed": false,
          "internalType": "string",
          "name": "newTag",
          "type": "string"
        },
        {
          "indexed": false,
          "internalType": "string",
          "name": "cuttingCid",
          "type": "string"
        }
      ],
      "name": "CuttingEvent",
      "type": "event"
    },
    {
      "anonymous": false,
      "inputs": [
        {
          "indexed": false,
          "internalType": "string",
          "name": "newTag",
          "type": "string"
        },
        {
          "indexed": false,
          "internalType": "string",
          "name": "soId",
          "type": "string"
        },
        {
          "indexed": false,
          "internalType": "string",
          "name": "cuttingStorageCid",
          "type": "string"
        }
      ],
      "name": "CuttingStorageEvent",
      "type": "event"
    },
    {
      "anonymous": false,
      "inputs": [
        {
          "indexed": false,
          "internalType": "string",
          "name": "lotId",
          "type": "string"
        },
        {
          "indexed": false,
          "internalType": "string",
          "name": "dyeingInputCid",
          "type": "string"
        }
      ],
      "name": "DyeingInputEvent",
      "type": "event"
    },
    {
      "anonymous": false,
      "inputs": [
        {
          "indexed": false,
          "internalType": "string",
          "name": "lotId",
          "type": "string"
        },
        {
          "indexed": false,
          "internalType": "string",
          "name": "dyeingOutputCid",
          "type": "string"
        }
      ],
      "name": "DyeingOutputEvent",
      "type": "event"
    },
    {
      "anonymous": false,
      "inputs": [
        {
          "indexed": false,
          "internalType": "string",
          "name": "soId",
          "type": "string"
        },
        {
          "indexed": false,
          "internalType": "string",
          "name": "pelletId",
          "type": "string"
        },
        {
          "indexed": false,
          "internalType": "string",
          "name": "pelletExitCid",
          "type": "string"
        }
      ],
      "name": "ExitPelletEvent",
      "type": "event"
    },
    {
      "anonymous": false,
      "inputs": [
        {
          "indexed": false,
          "internalType": "string",
          "name": "ffiRollId",
          "type": "string"
        },
        {
          "indexed": false,
          "internalType": "string",
          "name": "soId",
          "type": "string"
        },
        {
          "indexed": false,
          "internalType": "string",
          "name": "ffiOutputCid",
          "type": "string"
        }
      ],
      "name": "FfiOutputEvent",
      "type": "event"
    },
    {
      "anonymous": false,
      "inputs": [
        {
          "indexed": false,
          "internalType": "string",
          "name": "ffiRollId",
          "type": "string"
        },
        {
          "indexed": false,
          "internalType": "string",
          "name": "soId",
          "type": "string"
        },
        {
          "indexed": false,
          "internalType": "string",
          "name": "imsBinNumber",
          "type": "string"
        }
      ],
      "name": "FfiStorageEvent",
      "type": "event"
    },
    {
      "anonymous": false,
      "inputs": [
        {
          "indexed": false,
          "internalType": "string",
          "name": "lotId",
          "type": "string"
        },
        {
          "indexed": false,
          "internalType": "string",
          "name": "finishedFabricInputCid",
          "type": "string"
        }
      ],
      "name": "FinishedFabricInputEvent",
      "type": "event"
    },
    {
      "anonymous": false,
      "inputs": [
        {
          "indexed": false,
          "internalType": "string",
          "name": "lotId",
          "type": "string"
        },
        {
          "indexed": false,
          "internalType": "string",
          "name": "finishedFabricInspectionCid",
          "type": "string"
        }
      ],
      "name": "FinishedFabricInspectionEvent",
      "type": "event"
    },
    {
      "anonymous": false,
      "inputs": [
        {
          "indexed": false,
          "internalType": "string",
          "name": "lotId",
          "type": "string"
        },
        {
          "indexed": false,
          "internalType": "string",
          "name": "finishedFabricOutputCid",
          "type": "string"
        }
      ],
      "name": "FinishedFabricOutputEvent",
      "type": "event"
    },
    {
      "anonymous": false,
      "inputs": [
        {
          "indexed": false,
          "internalType": "string",
          "name": "newRollId",
          "type": "string"
        },
        {
          "indexed": false,
          "internalType": "string",
          "name": "soId",
          "type": "string"
        },
        {
          "indexed": false,
          "internalType": "string",
          "name": "gfiMachineId",
          "type": "string"
        },
        {
          "indexed": false,
          "internalType": "string",
          "name": "gfiMachineOutputCid",
          "type": "string"
        }
      ],
      "name": "GfiOutputEvent",
      "type": "event"
    },
    {
      "anonymous": false,
      "inputs": [
        {
          "indexed": false,
          "internalType": "string",
          "name": "soId",
          "type": "string"
        },
        {
          "indexed": false,
          "internalType": "string",
          "name": "pelletId",
          "type": "string"
        }
      ],
      "name": "IssueNewPelletEvent",
      "type": "event"
    },
    {
      "anonymous": false,
      "inputs": [
        {
          "indexed": false,
          "internalType": "string",
          "name": "soId",
          "type": "string"
        },
        {
          "indexed": false,
          "internalType": "string",
          "name": "processHousePo",
          "type": "string"
        }
      ],
      "name": "LinkProcessHousePoEvent",
      "type": "event"
    },
    {
      "anonymous": false,
      "inputs": [
        {
          "indexed": false,
          "internalType": "string",
          "name": "soId",
          "type": "string"
        },
        {
          "indexed": false,
          "internalType": "string",
          "name": "pelletId",
          "type": "string"
        },
        {
          "indexed": false,
          "internalType": "string",
          "name": "creelMachineId",
          "type": "string"
        },
        {
          "indexed": false,
          "internalType": "string",
          "name": "warpMachineLoadingCid",
          "type": "string"
        }
      ],
      "name": "LoadPelletEvent",
      "type": "event"
    },
    {
      "anonymous": false,
      "inputs": [
        {
          "indexed": false,
          "internalType": "string",
          "name": "soId",
          "type": "string"
        },
        {
          "indexed": false,
          "internalType": "string",
          "name": "rollId",
          "type": "string"
        },
        {
          "indexed": false,
          "internalType": "string",
          "name": "gfiMachineId",
          "type": "string"
        },
        {
          "indexed": false,
          "internalType": "string",
          "name": "gfiMachineLoadingCid",
          "type": "string"
        }
      ],
      "name": "LoadRollEvent",
      "type": "event"
    },
    {
      "anonymous": false,
      "inputs": [
        {
          "indexed": false,
          "internalType": "string",
          "name": "soId",
          "type": "string"
        },
        {
          "indexed": false,
          "internalType": "string",
          "name": "warperBeamId",
          "type": "string"
        },
        {
          "indexed": false,
          "internalType": "string",
          "name": "sizingMachineId",
          "type": "string"
        },
        {
          "indexed": false,
          "internalType": "string",
          "name": "sizingMachineLoadingCid",
          "type": "string"
        }
      ],
      "name": "LoadWarperBeamEvent",
      "type": "event"
    },
    {
      "anonymous": false,
      "inputs": [
        {
          "indexed": false,
          "internalType": "string",
          "name": "soId",
          "type": "string"
        },
        {
          "indexed": false,
          "internalType": "string",
          "name": "weaverBeamId",
          "type": "string"
        },
        {
          "indexed": false,
          "internalType": "string",
          "name": "pelletId",
          "type": "string"
        },
        {
          "indexed": false,
          "internalType": "string",
          "name": "loomMachineId",
          "type": "string"
        },
        {
          "indexed": false,
          "internalType": "string",
          "name": "loomMachineLoadingCid",
          "type": "string"
        }
      ],
      "name": "LoadWeaverBeamEvent",
      "type": "event"
    },
    {
      "anonymous": false,
      "inputs": [
        {
          "indexed": false,
          "internalType": "string",
          "name": "rollId",
          "type": "string"
        },
        {
          "indexed": false,
          "internalType": "string",
          "name": "soId",
          "type": "string"
        },
        {
          "indexed": false,
          "internalType": "string",
          "name": "loomMachineId",
          "type": "string"
        },
        {
          "indexed": false,
          "internalType": "string",
          "name": "loomMachineOutputCid",
          "type": "string"
        }
      ],
      "name": "LoomOutputEvent",
      "type": "event"
    },
    {
      "anonymous": false,
      "inputs": [
        {
          "indexed": false,
          "internalType": "string",
          "name": "lotId",
          "type": "string"
        },
        {
          "indexed": false,
          "internalType": "string",
          "name": "mercerizingInputCid",
          "type": "string"
        }
      ],
      "name": "MercerizingInputEvent",
      "type": "event"
    },
    {
      "anonymous": false,
      "inputs": [
        {
          "indexed": false,
          "internalType": "string",
          "name": "lotId",
          "type": "string"
        },
        {
          "indexed": false,
          "internalType": "string",
          "name": "mercerizingOutputCid",
          "type": "string"
        }
      ],
      "name": "MercerizingOutputEvent",
      "type": "event"
    },
    {
      "anonymous": false,
      "inputs": [
        {
          "indexed": true,
          "internalType": "address",
          "name": "previousOwner",
          "type": "address"
        },
        {
          "indexed": true,
          "internalType": "address",
          "name": "newOwner",
          "type": "address"
        }
      ],
      "name": "OwnershipTransferred",
      "type": "event"
    },
    {
      "anonymous": false,
      "inputs": [
        {
          "indexed": false,
          "internalType": "string",
          "name": "lotId",
          "type": "string"
        },
        {
          "indexed": false,
          "internalType": "string",
          "name": "printingInputCid",
          "type": "string"
        }
      ],
      "name": "PrintingInputEvent",
      "type": "event"
    },
    {
      "anonymous": false,
      "inputs": [
        {
          "indexed": false,
          "internalType": "string",
          "name": "lotId",
          "type": "string"
        },
        {
          "indexed": false,
          "internalType": "string",
          "name": "printingOutputCid",
          "type": "string"
        }
      ],
      "name": "PrintingOutputEvent",
      "type": "event"
    },
    {
      "anonymous": false,
      "inputs": [
        {
          "indexed": false,
          "internalType": "string",
          "name": "lotId",
          "type": "string"
        },
        {
          "indexed": false,
          "internalType": "string",
          "name": "singingPtrInputCid",
          "type": "string"
        }
      ],
      "name": "SingingPtrInputEvent",
      "type": "event"
    },
    {
      "anonymous": false,
      "inputs": [
        {
          "indexed": false,
          "internalType": "string",
          "name": "lotId",
          "type": "string"
        },
        {
          "indexed": false,
          "internalType": "string",
          "name": "singingPtrOutputCid",
          "type": "string"
        }
      ],
      "name": "SingingPtrOutputEvent",
      "type": "event"
    },
    {
      "anonymous": false,
      "inputs": [
        {
          "indexed": false,
          "internalType": "string",
          "name": "weaverBeamId",
          "type": "string"
        },
        {
          "indexed": false,
          "internalType": "string",
          "name": "soId",
          "type": "string"
        },
        {
          "indexed": false,
          "internalType": "string",
          "name": "sizingMachineId",
          "type": "string"
        },
        {
          "indexed": false,
          "internalType": "string",
          "name": "sizingMachineOutputCid",
          "type": "string"
        }
      ],
      "name": "SizingOutputEvent",
      "type": "event"
    },
    {
      "anonymous": false,
      "inputs": [
        {
          "indexed": false,
          "internalType": "string",
          "name": "binId",
          "type": "string"
        },
        {
          "indexed": false,
          "internalType": "string",
          "name": "soId",
          "type": "string"
        },
        {
          "indexed": false,
          "internalType": "string",
          "name": "weaverBeamId",
          "type": "string"
        },
        {
          "indexed": false,
          "internalType": "string",
          "name": "sizingStorageCid",
          "type": "string"
        }
      ],
      "name": "SizingStorageEvent",
      "type": "event"
    },
    {
      "anonymous": false,
      "inputs": [
        {
          "indexed": false,
          "internalType": "string",
          "name": "warpBeamId",
          "type": "string"
        },
        {
          "indexed": false,
          "internalType": "string",
          "name": "soId",
          "type": "string"
        },
        {
          "indexed": false,
          "internalType": "string",
          "name": "creelMachineId",
          "type": "string"
        },
        {
          "indexed": false,
          "internalType": "string",
          "name": "warpMachineOutputCid",
          "type": "string"
        }
      ],
      "name": "WarpingOutputEvent",
      "type": "event"
    },
    {
      "inputs": [
        {
          "internalType": "string",
          "name": "lotId",
          "type": "string"
        },
        {
          "internalType": "string",
          "name": "batchingCid",
          "type": "string"
        }
      ],
      "name": "addBatchingDetails",
      "outputs": [],
      "stateMutability": "nonpayable",
      "type": "function"
    },
    {
      "inputs": [
        {
          "internalType": "string",
          "name": "ffiRollId",
          "type": "string"
        },
        {
          "internalType": "string",
          "name": "soId",
          "type": "string"
        },
        {
          "internalType": "string",
          "name": "newTag",
          "type": "string"
        },
        {
          "internalType": "string",
          "name": "cuttingCid",
          "type": "string"
        }
      ],
      "name": "addCuttingDetails",
      "outputs": [],
      "stateMutability": "nonpayable",
      "type": "function"
    },
    {
      "inputs": [
        {
          "internalType": "string",
          "name": "newTag",
          "type": "string"
        },
        {
          "internalType": "string",
          "name": "soId",
          "type": "string"
        },
        {
          "internalType": "string",
          "name": "cuttingStorageCid",
          "type": "string"
        }
      ],
      "name": "addCuttingStorage",
      "outputs": [],
      "stateMutability": "nonpayable",
      "type": "function"
    },
    {
      "inputs": [
        {
          "internalType": "string",
          "name": "lotId",
          "type": "string"
        },
        {
          "internalType": "string",
          "name": "dyeingInputCid",
          "type": "string"
        }
      ],
      "name": "addDyeingInput",
      "outputs": [],
      "stateMutability": "nonpayable",
      "type": "function"
    },
    {
      "inputs": [
        {
          "internalType": "string",
          "name": "lotId",
          "type": "string"
        },
        {
          "internalType": "string",
          "name": "dyeingOutputCid",
          "type": "string"
        }
      ],
      "name": "addDyeingOutput",
      "outputs": [],
      "stateMutability": "nonpayable",
      "type": "function"
    },
    {
      "inputs": [
        {
          "internalType": "string",
          "name": "ffiRollId",
          "type": "string"
        },
        {
          "internalType": "string",
          "name": "soId",
          "type": "string"
        },
        {
          "internalType": "string",
          "name": "ffiOutputCid",
          "type": "string"
        }
      ],
      "name": "addFfiOutput",
      "outputs": [],
      "stateMutability": "nonpayable",
      "type": "function"
    },
    {
      "inputs": [
        {
          "internalType": "string",
          "name": "ffiRollId",
          "type": "string"
        },
        {
          "internalType": "string",
          "name": "soId",
          "type": "string"
        },
        {
          "internalType": "string",
          "name": "imsBinNumber",
          "type": "string"
        }
      ],
      "name": "addFfiStorage",
      "outputs": [],
      "stateMutability": "nonpayable",
      "type": "function"
    },
    {
      "inputs": [
        {
          "internalType": "string",
          "name": "lotId",
          "type": "string"
        },
        {
          "internalType": "string",
          "name": "finishedFabricInputCid",
          "type": "string"
        }
      ],
      "name": "addFinishedFabricInput",
      "outputs": [],
      "stateMutability": "nonpayable",
      "type": "function"
    },
    {
      "inputs": [
        {
          "internalType": "string",
          "name": "lotId",
          "type": "string"
        },
        {
          "internalType": "string",
          "name": "finishedFabricInspectionCid",
          "type": "string"
        }
      ],
      "name": "addFinishedFabricInspection",
      "outputs": [],
      "stateMutability": "nonpayable",
      "type": "function"
    },
    {
      "inputs": [
        {
          "internalType": "string",
          "name": "lotId",
          "type": "string"
        },
        {
          "internalType": "string",
          "name": "finishedFabricOutputCid",
          "type": "string"
        }
      ],
      "name": "addFinishedFabricOutput",
      "outputs": [],
      "stateMutability": "nonpayable",
      "type": "function"
    },
    {
      "inputs": [
        {
          "internalType": "string",
          "name": "newRollId",
          "type": "string"
        },
        {
          "internalType": "string",
          "name": "soId",
          "type": "string"
        },
        {
          "internalType": "string",
          "name": "gfiMachineId",
          "type": "string"
        },
        {
          "internalType": "string",
          "name": "gfiMachineOutputCid",
          "type": "string"
        }
      ],
      "name": "addGfiOutput",
      "outputs": [],
      "stateMutability": "nonpayable",
      "type": "function"
    },
    {
      "inputs": [
        {
          "internalType": "string",
          "name": "rollId",
          "type": "string"
        },
        {
          "internalType": "string",
          "name": "soId",
          "type": "string"
        },
        {
          "internalType": "string",
          "name": "loomMachineId",
          "type": "string"
        },
        {
          "internalType": "string",
          "name": "loomMachineOutputCid",
          "type": "string"
        }
      ],
      "name": "addLoomshedOutput",
      "outputs": [],
      "stateMutability": "nonpayable",
      "type": "function"
    },
    {
      "inputs": [
        {
          "internalType": "string",
          "name": "lotId",
          "type": "string"
        },
        {
          "internalType": "string",
          "name": "mercerizingInputCid",
          "type": "string"
        }
      ],
      "name": "addMercerizingInput",
      "outputs": [],
      "stateMutability": "nonpayable",
      "type": "function"
    },
    {
      "inputs": [
        {
          "internalType": "string",
          "name": "lotId",
          "type": "string"
        },
        {
          "internalType": "string",
          "name": "mercerizingOutputCid",
          "type": "string"
        }
      ],
      "name": "addMercerizingOutput",
      "outputs": [],
      "stateMutability": "nonpayable",
      "type": "function"
    },
    {
      "inputs": [
        {
          "internalType": "string",
          "name": "pelletId",
          "type": "string"
        },
        {
          "internalType": "string",
          "name": "pelletDetailsCid",
          "type": "string"
        }
      ],
      "name": "addPellet",
      "outputs": [],
      "stateMutability": "nonpayable",
      "type": "function"
    },
    {
      "inputs": [
        {
          "internalType": "string",
          "name": "lotId",
          "type": "string"
        },
        {
          "internalType": "string",
          "name": "printingInputCid",
          "type": "string"
        }
      ],
      "name": "addPrintingInput",
      "outputs": [],
      "stateMutability": "nonpayable",
      "type": "function"
    },
    {
      "inputs": [
        {
          "internalType": "string",
          "name": "lotId",
          "type": "string"
        },
        {
          "internalType": "string",
          "name": "printingOutputCid",
          "type": "string"
        }
      ],
      "name": "addPrintingOutput",
      "outputs": [],
      "stateMutability": "nonpayable",
      "type": "function"
    },
    {
      "inputs": [
        {
          "internalType": "string",
          "name": "lotId",
          "type": "string"
        },
        {
          "internalType": "string",
          "name": "singingPtrInputCid",
          "type": "string"
        }
      ],
      "name": "addSingingPtrInput",
      "outputs": [],
      "stateMutability": "nonpayable",
      "type": "function"
    },
    {
      "inputs": [
        {
          "internalType": "string",
          "name": "lotId",
          "type": "string"
        },
        {
          "internalType": "string",
          "name": "singingPtrOutputCid",
          "type": "string"
        }
      ],
      "name": "addSingingPtrOutput",
      "outputs": [],
      "stateMutability": "nonpayable",
      "type": "function"
    },
    {
      "inputs": [
        {
          "internalType": "string",
          "name": "weaverBeamId",
          "type": "string"
        },
        {
          "internalType": "string",
          "name": "soId",
          "type": "string"
        },
        {
          "internalType": "string",
          "name": "sizingMachineId",
          "type": "string"
        },
        {
          "internalType": "string",
          "name": "sizingMachineOutputCid",
          "type": "string"
        }
      ],
      "name": "addSizingOutput",
      "outputs": [],
      "stateMutability": "nonpayable",
      "type": "function"
    },
    {
      "inputs": [
        {
          "internalType": "string",
          "name": "warpBeamId",
          "type": "string"
        },
        {
          "internalType": "string",
          "name": "soId",
          "type": "string"
        },
        {
          "internalType": "string",
          "name": "creelMachineId",
          "type": "string"
        },
        {
          "internalType": "string",
          "name": "warpMachineOutputCid",
          "type": "string"
        }
      ],
      "name": "addWarpingOutput",
      "outputs": [],
      "stateMutability": "nonpayable",
      "type": "function"
    },
    {
      "inputs": [
        {
          "internalType": "string",
          "name": "soId",
          "type": "string"
        },
        {
          "internalType": "string",
          "name": "pelletId",
          "type": "string"
        }
      ],
      "name": "issueNewPellet",
      "outputs": [],
      "stateMutability": "nonpayable",
      "type": "function"
    },
    {
      "inputs": [
        {
          "internalType": "string",
          "name": "soId",
          "type": "string"
        },
        {
          "internalType": "string",
          "name": "processHousePo",
          "type": "string"
        }
      ],
      "name": "linkProcessHousePo",
      "outputs": [],
      "stateMutability": "nonpayable",
      "type": "function"
    },
    {
      "inputs": [
        {
          "internalType": "string",
          "name": "soId",
          "type": "string"
        },
        {
          "internalType": "string",
          "name": "sizingMachineId",
          "type": "string"
        },
        {
          "internalType": "string",
          "name": "warperBeamId",
          "type": "string"
        },
        {
          "internalType": "string",
          "name": "sizingMachineLoadingCid",
          "type": "string"
        }
      ],
      "name": "loadBeamToSizingMachine",
      "outputs": [],
      "stateMutability": "nonpayable",
      "type": "function"
    },
    {
      "inputs": [
        {
          "internalType": "string",
          "name": "soId",
          "type": "string"
        },
        {
          "internalType": "string",
          "name": "creelMachineId",
          "type": "string"
        },
        {
          "internalType": "string",
          "name": "pelletId",
          "type": "string"
        },
        {
          "internalType": "string",
          "name": "warpMachineLoadingCid",
          "type": "string"
        }
      ],
      "name": "loadPelletToWarpMachine",
      "outputs": [],
      "stateMutability": "nonpayable",
      "type": "function"
    },
    {
      "inputs": [
        {
          "internalType": "string",
          "name": "soId",
          "type": "string"
        },
        {
          "internalType": "string",
          "name": "rollId",
          "type": "string"
        },
        {
          "internalType": "string",
          "name": "gfiMachineId",
          "type": "string"
        },
        {
          "internalType": "string",
          "name": "gfiMachineLoadingCid",
          "type": "string"
        }
      ],
      "name": "loadRollToGfiMachine",
      "outputs": [],
      "stateMutability": "nonpayable",
      "type": "function"
    },
    {
      "inputs": [
        {
          "internalType": "string",
          "name": "soId",
          "type": "string"
        },
        {
          "internalType": "string",
          "name": "loomMachineId",
          "type": "string"
        },
        {
          "internalType": "string",
          "name": "weaverBeamId",
          "type": "string"
        },
        {
          "internalType": "string",
          "name": "pelletId",
          "type": "string"
        },
        {
          "internalType": "string",
          "name": "loomMachineLoadingCid",
          "type": "string"
        }
      ],
      "name": "loadWeaverBeamToLoomMachine",
      "outputs": [],
      "stateMutability": "nonpayable",
      "type": "function"
    },
    {
      "inputs": [
        {
          "internalType": "string",
          "name": "soId",
          "type": "string"
        },
        {
          "internalType": "string",
          "name": "pelletId",
          "type": "string"
        },
        {
          "internalType": "string",
          "name": "pelletExitCid",
          "type": "string"
        }
      ],
      "name": "movePelletFromWarehouse",
      "outputs": [],
      "stateMutability": "nonpayable",
      "type": "function"
    },
    {
      "inputs": [],
      "name": "owner",
      "outputs": [
        {
          "internalType": "address",
          "name": "",
          "type": "address"
        }
      ],
      "stateMutability": "view",
      "type": "function"
    },
    {
      "inputs": [],
      "name": "renounceOwnership",
      "outputs": [],
      "stateMutability": "nonpayable",
      "type": "function"
    },
    {
      "inputs": [
        {
          "internalType": "string",
          "name": "weaverBeamId",
          "type": "string"
        },
        {
          "internalType": "string",
          "name": "soId",
          "type": "string"
        },
        {
          "internalType": "string",
          "name": "binId",
          "type": "string"
        },
        {
          "internalType": "string",
          "name": "sizingStorageCid",
          "type": "string"
        }
      ],
      "name": "storeWeaverBeams",
      "outputs": [],
      "stateMutability": "nonpayable",
      "type": "function"
    },
    {
      "inputs": [
        {
          "internalType": "address",
          "name": "newOwner",
          "type": "address"
        }
      ],
      "name": "transferOwnership",
      "outputs": [],
      "stateMutability": "nonpayable",
      "type": "function"
    }
  ],
  "transactionHash": "0x443325fcee2f9251d92dfd2b26518f5dad38aabc7bc7749cd0bdb3e803ce3d9f",
  "args": [],
  "numDeployments": 1,
  "solcInputHash": "a9f87a28284efd9554c018bfd1635942",
  "bytecode": "0x608060405234801561001057600080fd5b5061001a3361001f565b61006f565b600080546001600160a01b038381166001600160a01b0319831681178455604051919092169283917f8be0079c531659141344cd1fd0a4f28419497f9722a3daafe3b4186f6b6457e09190a35050565b61122f8061007e6000396000f3fe608060405234801561001057600080fd5b50600436106101f05760003560e01c8063789bb4101161010f578063a7277ab4116100a2578063e63d655411610071578063e63d65541461040c578063e96fac401461041f578063f2fde38b14610432578063f78064791461044557600080fd5b8063a7277ab4146103c0578063b7d8319d146103d3578063c8493fe9146103e6578063e49f028f146103f957600080fd5b80638da5cb5b116100de5780638da5cb5b146103685780639ba399db14610387578063a1ce44b81461039a578063a262fa6b146103ad57600080fd5b8063789bb4101461031c57806382a10a931461032f578063878ec467146103425780638af2985c1461035557600080fd5b806346e9da0d116101875780636d6d935d116101565780636d6d935d146102db5780636dce718e146102ee578063715018a614610301578063773aaefb1461030957600080fd5b806346e9da0d1461028f57806356a08147146102a257806368e81dd5146102b55780636ab4017b146102c857600080fd5b80632d01385f116101c35780632d01385f1461024357806330c2827a146102565780633e2f55e3146102695780633fc7b52c1461027c57600080fd5b8063122e6ddf146101f55780631326e9361461020a57806320f4173c1461021d578063240135b514610230575b600080fd5b610208610203366004610d75565b610458565b005b610208610218366004610dfd565b610498565b61020861022b366004610dfd565b6104db565b61020861023e366004610d75565b610510565b610208610251366004610eaa565b610543565b610208610264366004610f7c565b610589565b610208610277366004610f7c565b6105c6565b61020861028a366004610dfd565b6105f7565b61020861029d366004610f7c565b61062c565b6102086102b0366004610d75565b61065d565b6102086102c3366004610dfd565b6106c3565b6102086102d6366004610f7c565b6106f8565b6102086102e9366004610d75565b610729565b6102086102fc366004610f7c565b61075c565b61020861078d565b610208610317366004610f7c565b6107f8565b61020861032a366004610f7c565b610829565b61020861033d366004610f7c565b61085a565b610208610350366004610dfd565b61088b565b610208610363366004610dfd565b6108c0565b600054604080516001600160a01b039092168252519081900360200190f35b610208610395366004610f7c565b6108f5565b6102086103a8366004610f7c565b610926565b6102086103bb366004610dfd565b610957565b6102086103ce366004610f7c565b61098c565b6102086103e1366004610dfd565b6109f0565b6102086103f4366004610f7c565b610a25565b610208610407366004610f7c565b610a56565b61020861041a366004610dfd565b610a87565b61020861042d366004610f7c565b610abc565b610208610440366004610fe0565b610aed565b610208610453366004610f7c565b610bb8565b7fab5f419ee6f6a706fd6b00968d534e7de96251c912dccde56af77accd2a6746283838360405161048b9392919061106c565b60405180910390a1505050565b7fb98ba971ebd97337a298f3ce374d0f70c762f593d3c49281beed9b1989faede7848484846040516104cd94939291906110af565b60405180910390a150505050565b7fc32725b21454c8debf79540c306c1f7bab1c8d56380e721a5ed0bebe69757ec8848484846040516104cd94939291906110af565b7fdeb2ec449da3a64b416c50b0123329f472866d659c2e95d896050390ee82b03783838360405161048b9392919061106c565b7f079e731e9eec2118c9283ce420514b761d2e839cb404cdcf95c98d099b35564f858585858560405161057a959493929190611107565b60405180910390a15050505050565b7faf52907a9c108e448cad2e8bb61158ea81fed470a4ca9040dc79ae63b82e90ba82826040516105ba929190611174565b60405180910390a15050565b7f6f8934c5aa6a674dd6b975cf6b583b87c5495d56191044d24feaebb3709eeebd82826040516105ba929190611174565b7fbb1d275465c7011aa5f816e1cae4ca4ed5f0227ecdb6850bb08236a16b4dbcfa848484846040516104cd94939291906110af565b7f3c5eca2ce4a21eb762e88dc9bd9f0a03219d2b5acad92c948899be773627c30482826040516105ba929190611174565b8060028360405161066e91906111a2565b9081526020016040518091039020908051906020019061068f929190610c39565b507f090ad0491d002dffdcc4d806cd10480d6260d3725905de71f838b512e82f487383838360405161048b9392919061106c565b7fc39f09db06c24d2087b567e2b77c4a8f90094eecdf4127abf6f1e14725ca473b848484846040516104cd94939291906110af565b7fc20c86ccfe909716fb7c8bd86cfc66a39cb64fe09ce3911863ce4729fe0fa00f82826040516105ba929190611174565b7fca0e45ac07d292e6b37672c4e7a772e526fa17dd61ca22315a301a3350d1256283838360405161048b9392919061106c565b7f94ba018c6409ad2e4428549735b8d975a9eb24bdc57dca968e7ec5abc5f3a09682826040516105ba929190611174565b6000546001600160a01b031633146107ec5760405162461bcd60e51b815260206004820181905260248201527f4f776e61626c653a2063616c6c6572206973206e6f7420746865206f776e657260448201526064015b60405180910390fd5b6107f66000610be9565b565b7f3b70dd7b2b51c9028b48c2fd5730a3e44a8b52fcf0b0e22f3a840a69fb00f23b82826040516105ba929190611174565b7fe995683306ce83c3518711ea22c50b46f9c6abc7d60f820cf90282ec6ae4959e82826040516105ba929190611174565b7f4e690007acf113698bd564d490c30d306cd7a43bbc8f8ff9b8e1ed1db5714b7482826040516105ba929190611174565b7ff6402d9fa09d8773d6b0db1fc8660f8853dea126d07c9542550ae4f2f7e87a4f848484846040516104cd94939291906110af565b7f51f29d16e8fb202ea95de45e4ad480b08c04dbadacbb898eda8bd970c9d068be848385846040516104cd94939291906110af565b7f67025a0a11e204b8b10f1e84376fe10d90c82944454a150e61bf1aa197946c5982826040516105ba929190611174565b7f1807589d336eeb41dec78a7921e4f8815f464aae5474125f00e892f5aa3eef8482826040516105ba929190611174565b7f8b333d6cf23703468f76dda869592377e7e76e9e4b57ab08ef67138d98835592848484846040516104cd94939291906110af565b8060018360405161099d91906111a2565b908152602001604051809103902090805190602001906109be929190610c39565b507f2dec00b9b3b774aa5c5d6b2f031542e738341546531203f3b86dfa0653cafce882826040516105ba929190611174565b7fac9b01ded77ccd0bf78da5b7f81cd2518c1292fa1c56e53dfa9335b090a471b5828486846040516104cd94939291906110af565b7f1c6f50ba03bbd5b01178fe278dbc9a1be0af600ea8e760c19d11282286b046df82826040516105ba929190611174565b7fdcfff7f6d812330d27bbec951f5cd5421587c0c4177e29ada8231d5a07f581b682826040516105ba929190611174565b7f512d42221a0ce07c6944e848699339ff476f4229dc1a44c6c11574fb9ef28e69848385846040516104cd94939291906110af565b7fe7f5294af4fe7ce90473f14bf4b66e17cbd1aab9162c00f166ba46b599b3468182826040516105ba929190611174565b6000546001600160a01b03163314610b475760405162461bcd60e51b815260206004820181905260248201527f4f776e61626c653a2063616c6c6572206973206e6f7420746865206f776e657260448201526064016107e3565b6001600160a01b038116610bac5760405162461bcd60e51b815260206004820152602660248201527f4f776e61626c653a206e6577206f776e657220697320746865207a65726f206160448201526564647265737360d01b60648201526084016107e3565b610bb581610be9565b50565b7f06caa096dd6569a98e8029142e08a5ab3b6048451beaf5211db342b10efeca4a82826040516105ba929190611174565b600080546001600160a01b038381166001600160a01b0319831681178455604051919092169283917f8be0079c531659141344cd1fd0a4f28419497f9722a3daafe3b4186f6b6457e09190a35050565b828054610c45906111be565b90600052602060002090601f016020900481019282610c675760008555610cad565b82601f10610c8057805160ff1916838001178555610cad565b82800160010185558215610cad579182015b82811115610cad578251825591602001919060010190610c92565b50610cb9929150610cbd565b5090565b5b80821115610cb95760008155600101610cbe565b634e487b7160e01b600052604160045260246000fd5b600082601f830112610cf957600080fd5b813567ffffffffffffffff80821115610d1457610d14610cd2565b604051601f8301601f19908116603f01168101908282118183101715610d3c57610d3c610cd2565b81604052838152866020858801011115610d5557600080fd5b836020870160208301376000602085830101528094505050505092915050565b600080600060608486031215610d8a57600080fd5b833567ffffffffffffffff80821115610da257600080fd5b610dae87838801610ce8565b94506020860135915080821115610dc457600080fd5b610dd087838801610ce8565b93506040860135915080821115610de657600080fd5b50610df386828701610ce8565b9150509250925092565b60008060008060808587031215610e1357600080fd5b843567ffffffffffffffff80821115610e2b57600080fd5b610e3788838901610ce8565b95506020870135915080821115610e4d57600080fd5b610e5988838901610ce8565b94506040870135915080821115610e6f57600080fd5b610e7b88838901610ce8565b93506060870135915080821115610e9157600080fd5b50610e9e87828801610ce8565b91505092959194509250565b600080600080600060a08688031215610ec257600080fd5b853567ffffffffffffffff80821115610eda57600080fd5b610ee689838a01610ce8565b96506020880135915080821115610efc57600080fd5b610f0889838a01610ce8565b95506040880135915080821115610f1e57600080fd5b610f2a89838a01610ce8565b94506060880135915080821115610f4057600080fd5b610f4c89838a01610ce8565b93506080880135915080821115610f6257600080fd5b50610f6f88828901610ce8565b9150509295509295909350565b60008060408385031215610f8f57600080fd5b823567ffffffffffffffff80821115610fa757600080fd5b610fb386838701610ce8565b93506020850135915080821115610fc957600080fd5b50610fd685828601610ce8565b9150509250929050565b600060208284031215610ff257600080fd5b81356001600160a01b038116811461100957600080fd5b9392505050565b60005b8381101561102b578181015183820152602001611013565b8381111561103a576000848401525b50505050565b60008151808452611058816020860160208601611010565b601f01601f19169290920160200192915050565b60608152600061107f6060830186611040565b82810360208401526110918186611040565b905082810360408401526110a58185611040565b9695505050505050565b6080815260006110c26080830187611040565b82810360208401526110d48187611040565b905082810360408401526110e88186611040565b905082810360608401526110fc8185611040565b979650505050505050565b60a08152600061111a60a0830188611040565b828103602084015261112c8188611040565b905082810360408401526111408187611040565b905082810360608401526111548186611040565b905082810360808401526111688185611040565b98975050505050505050565b6040815260006111876040830185611040565b82810360208401526111998185611040565b95945050505050565b600082516111b4818460208701611010565b9190910192915050565b600181811c908216806111d257607f821691505b602082108114156111f357634e487b7160e01b600052602260045260246000fd5b5091905056fea2646970667358221220a3074ee1a3208aa21686d169508877e72fd02e71aa8aed739b41ac8afe4d443664736f6c63430008090033",
  "devdoc": {
    "kind": "dev",
    "methods": {
      "owner()": {
        "details": "Returns the address of the current owner."
      },
      "renounceOwnership()": {
        "details": "Leaves the contract without owner. It will not be possible to call `onlyOwner` functions anymore. Can only be called by the current owner. NOTE: Renouncing ownership will leave the contract without an owner, thereby removing any functionality that is only available to the owner."
      },
      "transferOwnership(address)": {
        "details": "Transfers ownership of the contract to a new account (`newOwner`). Can only be called by the current owner."
      }
    },
    "version": 1
  },
  "userdoc": {
    "kind": "user",
    "methods": {},
    "version": 1
  },
  "storageLayout": {
    "storage": [
      {
        "astId": 389,
        "contract": "contracts/Trident.sol:Trident",
        "label": "_owner",
        "offset": 0,
        "slot": "0",
        "type": "t_address"
      },
      {
        "astId": 3940,
        "contract": "contracts/Trident.sol:Trident",
        "label": "_pettletIdToCid",
        "offset": 0,
        "slot": "1",
        "type": "t_mapping(t_string_memory_ptr,t_string_storage)"
      },
      {
        "astId": 3944,
        "contract": "contracts/Trident.sol:Trident",
        "label": "_pelletExitDetails",
        "offset": 0,
        "slot": "2",
        "type": "t_mapping(t_string_memory_ptr,t_string_storage)"
      }
    ],
    "types": {
      "t_address": {
        "encoding": "inplace",
        "label": "address",
        "numberOfBytes": "20"
      },
      "t_mapping(t_string_memory_ptr,t_string_storage)": {
        "encoding": "mapping",
        "key": "t_string_memory_ptr",
        "label": "mapping(string => string)",
        "numberOfBytes": "32",
        "value": "t_string_storage"
      },
      "t_string_memory_ptr": {
        "encoding": "bytes",
        "label": "string",
        "numberOfBytes": "32"
      },
      "t_string_storage": {
        "encoding": "bytes",
        "label": "string",
        "numberOfBytes": "32"
      }
    }
  }
}