{
  "address": "0x41383977DeFa8C4F748a9e93810b08923acA79dA",
  "abi": [
    {
      "anonymous": false,
      "inputs": [
        {
          "indexed": false,
          "internalType": "string",
          "name": "pelletId",
          "type": "string"
        },
        {
          "indexed": false,
          "internalType": "string",
          "name": "soId",
          "type": "string"
        },
        {
          "indexed": false,
          "internalType": "string",
          "name": "pelletDetailsCid",
          "type": "string"
        }
      ],
      "name": "AddNewPelletEvent",
      "type": "event"
    },
    {
      "anonymous": false,
      "inputs": [
        {
          "indexed": false,
          "internalType": "string",
          "name": "pelletId",
          "type": "string"
        },
        {
          "indexed": false,
          "internalType": "string",
          "name": "pelletDetailsCid",
          "type": "string"
        }
      ],
      "name": "AddPelletEvent",
      "type": "event"
    },
    {
      "anonymous": false,
      "inputs": [
        {
          "indexed": false,
          "internalType": "string",
          "name": "soId",
          "type": "string"
        },
        {
          "indexed": false,
          "internalType": "string",
          "name": "pelletId",
          "type": "string"
        },
        {
          "indexed": false,
          "internalType": "string",
          "name": "pelletExitCid",
          "type": "string"
        }
      ],
      "name": "ExitPelletEvent",
      "type": "event"
    },
    {
      "anonymous": false,
      "inputs": [
        {
          "indexed": false,
          "internalType": "string",
          "name": "soId",
          "type": "string"
        },
        {
          "indexed": false,
          "internalType": "string",
          "name": "pelletId",
          "type": "string"
        },
        {
          "indexed": false,
          "internalType": "string",
          "name": "creelMachineId",
          "type": "string"
        },
        {
          "indexed": false,
          "internalType": "string",
          "name": "warpMachineLoadingCid",
          "type": "string"
        }
      ],
      "name": "LoadPelletEvent",
      "type": "event"
    },
    {
      "anonymous": false,
      "inputs": [
        {
          "indexed": false,
          "internalType": "string",
          "name": "soId",
          "type": "string"
        },
        {
          "indexed": false,
          "internalType": "string",
          "name": "warperBeamId",
          "type": "string"
        },
        {
          "indexed": false,
          "internalType": "string",
          "name": "sizingMachineId",
          "type": "string"
        },
        {
          "indexed": false,
          "internalType": "string",
          "name": "sizingMachineLoadingCid",
          "type": "string"
        }
      ],
      "name": "LoadWarperBeamEvent",
      "type": "event"
    },
    {
      "anonymous": false,
      "inputs": [
        {
          "indexed": false,
          "internalType": "string",
          "name": "soId",
          "type": "string"
        },
        {
          "indexed": false,
          "internalType": "string",
          "name": "weaverBeamId",
          "type": "string"
        },
        {
          "indexed": false,
          "internalType": "string",
          "name": "pelletId",
          "type": "string"
        },
        {
          "indexed": false,
          "internalType": "string",
          "name": "loomMachineId",
          "type": "string"
        },
        {
          "indexed": false,
          "internalType": "string",
          "name": "loomMachineLoadingCid",
          "type": "string"
        }
      ],
      "name": "LoadWeaverBeamEvent",
      "type": "event"
    },
    {
      "anonymous": false,
      "inputs": [
        {
          "indexed": false,
          "internalType": "string",
          "name": "rollId",
          "type": "string"
        },
        {
          "indexed": false,
          "internalType": "string",
          "name": "soId",
          "type": "string"
        },
        {
          "indexed": false,
          "internalType": "string",
          "name": "loomMachineId",
          "type": "string"
        },
        {
          "indexed": false,
          "internalType": "string",
          "name": "loomMachineOutputCid",
          "type": "string"
        }
      ],
      "name": "LoomOutputEvent",
      "type": "event"
    },
    {
      "anonymous": false,
      "inputs": [
        {
          "indexed": true,
          "internalType": "address",
          "name": "previousOwner",
          "type": "address"
        },
        {
          "indexed": true,
          "internalType": "address",
          "name": "newOwner",
          "type": "address"
        }
      ],
      "name": "OwnershipTransferred",
      "type": "event"
    },
    {
      "anonymous": false,
      "inputs": [
        {
          "indexed": false,
          "internalType": "string",
          "name": "weaverBeamId",
          "type": "string"
        },
        {
          "indexed": false,
          "internalType": "string",
          "name": "soId",
          "type": "string"
        },
        {
          "indexed": false,
          "internalType": "string",
          "name": "sizingMachineId",
          "type": "string"
        },
        {
          "indexed": false,
          "internalType": "string",
          "name": "sizingMachineOutputCid",
          "type": "string"
        }
      ],
      "name": "SizingOutputEvent",
      "type": "event"
    },
    {
      "anonymous": false,
      "inputs": [
        {
          "indexed": false,
          "internalType": "string",
          "name": "binId",
          "type": "string"
        },
        {
          "indexed": false,
          "internalType": "string",
          "name": "soId",
          "type": "string"
        },
        {
          "indexed": false,
          "internalType": "string",
          "name": "weaverBeamId",
          "type": "string"
        },
        {
          "indexed": false,
          "internalType": "string",
          "name": "sizingStorageCid",
          "type": "string"
        }
      ],
      "name": "SizingStorageEvent",
      "type": "event"
    },
    {
      "anonymous": false,
      "inputs": [
        {
          "indexed": false,
          "internalType": "string",
          "name": "warpBeamId",
          "type": "string"
        },
        {
          "indexed": false,
          "internalType": "string",
          "name": "soId",
          "type": "string"
        },
        {
          "indexed": false,
          "internalType": "string",
          "name": "creelMachineId",
          "type": "string"
        },
        {
          "indexed": false,
          "internalType": "string",
          "name": "warpMachineOutputCid",
          "type": "string"
        }
      ],
      "name": "WarpingOutputEvent",
      "type": "event"
    },
    {
      "inputs": [
        {
          "internalType": "string",
          "name": "rollId",
          "type": "string"
        },
        {
          "internalType": "string",
          "name": "soId",
          "type": "string"
        },
        {
          "internalType": "string",
          "name": "loomMachineId",
          "type": "string"
        },
        {
          "internalType": "string",
          "name": "loomMachineOutputCid",
          "type": "string"
        }
      ],
      "name": "addLoomshedOutput",
      "outputs": [],
      "stateMutability": "nonpayable",
      "type": "function"
    },
    {
      "inputs": [
        {
          "internalType": "string",
          "name": "pelletId",
          "type": "string"
        },
        {
          "internalType": "string",
          "name": "pelletDetailsCid",
          "type": "string"
        }
      ],
      "name": "addPellet",
      "outputs": [],
      "stateMutability": "nonpayable",
      "type": "function"
    },
    {
      "inputs": [
        {
          "internalType": "string",
          "name": "weaverBeamId",
          "type": "string"
        },
        {
          "internalType": "string",
          "name": "soId",
          "type": "string"
        },
        {
          "internalType": "string",
          "name": "sizingMachineId",
          "type": "string"
        },
        {
          "internalType": "string",
          "name": "sizingMachineOutputCid",
          "type": "string"
        }
      ],
      "name": "addSizingOutput",
      "outputs": [],
      "stateMutability": "nonpayable",
      "type": "function"
    },
    {
      "inputs": [
        {
          "internalType": "string",
          "name": "warpBeamId",
          "type": "string"
        },
        {
          "internalType": "string",
          "name": "soId",
          "type": "string"
        },
        {
          "internalType": "string",
          "name": "creelMachineId",
          "type": "string"
        },
        {
          "internalType": "string",
          "name": "warpMachineOutputCid",
          "type": "string"
        }
      ],
      "name": "addWarpingOutput",
      "outputs": [],
      "stateMutability": "nonpayable",
      "type": "function"
    },
    {
      "inputs": [
        {
          "internalType": "string",
          "name": "soId",
          "type": "string"
        },
        {
          "internalType": "string",
          "name": "sizingMachineId",
          "type": "string"
        },
        {
          "internalType": "string",
          "name": "warperBeamId",
          "type": "string"
        },
        {
          "internalType": "string",
          "name": "sizingMachineLoadingCid",
          "type": "string"
        }
      ],
      "name": "loadBeamToSizingMachine",
      "outputs": [],
      "stateMutability": "nonpayable",
      "type": "function"
    },
    {
      "inputs": [
        {
          "internalType": "string",
          "name": "soId",
          "type": "string"
        },
        {
          "internalType": "string",
          "name": "creelMachineId",
          "type": "string"
        },
        {
          "internalType": "string",
          "name": "pelletId",
          "type": "string"
        },
        {
          "internalType": "string",
          "name": "warpMachineLoadingCid",
          "type": "string"
        }
      ],
      "name": "loadPelletToWarpMachine",
      "outputs": [],
      "stateMutability": "nonpayable",
      "type": "function"
    },
    {
      "inputs": [
        {
          "internalType": "string",
          "name": "soId",
          "type": "string"
        },
        {
          "internalType": "string",
          "name": "loomMachineId",
          "type": "string"
        },
        {
          "internalType": "string",
          "name": "weaverBeamId",
          "type": "string"
        },
        {
          "internalType": "string",
          "name": "pelletId",
          "type": "string"
        },
        {
          "internalType": "string",
          "name": "loomMachineLoadingCid",
          "type": "string"
        }
      ],
      "name": "loadWeaverBeamToLoomMachine",
      "outputs": [],
      "stateMutability": "nonpayable",
      "type": "function"
    },
    {
      "inputs": [
        {
          "internalType": "string",
          "name": "soId",
          "type": "string"
        },
        {
          "internalType": "string",
          "name": "pelletId",
          "type": "string"
        },
        {
          "internalType": "string",
          "name": "pelletExitCid",
          "type": "string"
        }
      ],
      "name": "movePelletFromWarehouse",
      "outputs": [],
      "stateMutability": "nonpayable",
      "type": "function"
    },
    {
      "inputs": [],
      "name": "owner",
      "outputs": [
        {
          "internalType": "address",
          "name": "",
          "type": "address"
        }
      ],
      "stateMutability": "view",
      "type": "function"
    },
    {
      "inputs": [],
      "name": "renounceOwnership",
      "outputs": [],
      "stateMutability": "nonpayable",
      "type": "function"
    },
    {
      "inputs": [
        {
          "internalType": "string",
          "name": "weaverBeamId",
          "type": "string"
        },
        {
          "internalType": "string",
          "name": "soId",
          "type": "string"
        },
        {
          "internalType": "string",
          "name": "binId",
          "type": "string"
        },
        {
          "internalType": "string",
          "name": "sizingStorageCid",
          "type": "string"
        }
      ],
      "name": "storeWeaverBeams",
      "outputs": [],
      "stateMutability": "nonpayable",
      "type": "function"
    },
    {
      "inputs": [
        {
          "internalType": "address",
          "name": "newOwner",
          "type": "address"
        }
      ],
      "name": "transferOwnership",
      "outputs": [],
      "stateMutability": "nonpayable",
      "type": "function"
    }
  ],
  "transactionHash": "0x99fe5905f9ec64f5e48eda9d1c2d37892c9e016f49cfa8fbbf6e76062a2d92ac",
  "args": [],
  "numDeployments": 1,
  "solcInputHash": "563cb42605d0de09fc0370000ab5deb7",
  "bytecode": "0x608060405234801561001057600080fd5b5061001a3361001f565b61006f565b600080546001600160a01b038381166001600160a01b0319831681178455604051919092169283917f8be0079c531659141344cd1fd0a4f28419497f9722a3daafe3b4186f6b6457e09190a35050565b610b918061007e6000396000f3fe608060405234801561001057600080fd5b50600436106100b45760003560e01c80638af2985c116100715780638af2985c146101225780638da5cb5b14610135578063a7277ab414610154578063b7d8319d14610167578063e63d65541461017a578063f2fde38b1461018d57600080fd5b806320f4173c146100b95780632d01385f146100ce5780633fc7b52c146100e157806356a08147146100f4578063715018a614610107578063878ec4671461010f575b600080fd5b6100cc6100c73660046106d7565b6101a0565b005b6100cc6100dc366004610784565b6101e3565b6100cc6100ef3660046106d7565b610229565b6100cc610102366004610856565b61025e565b6100cc6102d1565b6100cc61011d3660046106d7565b61033c565b6100cc6101303660046106d7565b610371565b600054604080516001600160a01b039092168252519081900360200190f35b6100cc6101623660046108de565b6103a6565b6100cc6101753660046106d7565b610416565b6100cc6101883660046106d7565b61044b565b6100cc61019b366004610942565b610480565b7fc32725b21454c8debf79540c306c1f7bab1c8d56380e721a5ed0bebe69757ec8848484846040516101d594939291906109ce565b60405180910390a150505050565b7f079e731e9eec2118c9283ce420514b761d2e839cb404cdcf95c98d099b35564f858585858560405161021a959493929190610a26565b60405180910390a15050505050565b7fbb1d275465c7011aa5f816e1cae4ca4ed5f0227ecdb6850bb08236a16b4dbcfa848484846040516101d594939291906109ce565b8060028360405161026f9190610a93565b9081526020016040518091039020908051906020019061029092919061059b565b507f090ad0491d002dffdcc4d806cd10480d6260d3725905de71f838b512e82f48738383836040516102c493929190610aaf565b60405180910390a1505050565b6000546001600160a01b031633146103305760405162461bcd60e51b815260206004820181905260248201527f4f776e61626c653a2063616c6c6572206973206e6f7420746865206f776e657260448201526064015b60405180910390fd5b61033a600061054b565b565b7ff6402d9fa09d8773d6b0db1fc8660f8853dea126d07c9542550ae4f2f7e87a4f848484846040516101d594939291906109ce565b7f51f29d16e8fb202ea95de45e4ad480b08c04dbadacbb898eda8bd970c9d068be848385846040516101d594939291906109ce565b806001836040516103b79190610a93565b908152602001604051809103902090805190602001906103d892919061059b565b507f2dec00b9b3b774aa5c5d6b2f031542e738341546531203f3b86dfa0653cafce8828260405161040a929190610af2565b60405180910390a15050565b7fac9b01ded77ccd0bf78da5b7f81cd2518c1292fa1c56e53dfa9335b090a471b5828486846040516101d594939291906109ce565b7f512d42221a0ce07c6944e848699339ff476f4229dc1a44c6c11574fb9ef28e69848385846040516101d594939291906109ce565b6000546001600160a01b031633146104da5760405162461bcd60e51b815260206004820181905260248201527f4f776e61626c653a2063616c6c6572206973206e6f7420746865206f776e65726044820152606401610327565b6001600160a01b03811661053f5760405162461bcd60e51b815260206004820152602660248201527f4f776e61626c653a206e6577206f776e657220697320746865207a65726f206160448201526564647265737360d01b6064820152608401610327565b6105488161054b565b50565b600080546001600160a01b038381166001600160a01b0319831681178455604051919092169283917f8be0079c531659141344cd1fd0a4f28419497f9722a3daafe3b4186f6b6457e09190a35050565b8280546105a790610b20565b90600052602060002090601f0160209004810192826105c9576000855561060f565b82601f106105e257805160ff191683800117855561060f565b8280016001018555821561060f579182015b8281111561060f5782518255916020019190600101906105f4565b5061061b92915061061f565b5090565b5b8082111561061b5760008155600101610620565b634e487b7160e01b600052604160045260246000fd5b600082601f83011261065b57600080fd5b813567ffffffffffffffff8082111561067657610676610634565b604051601f8301601f19908116603f0116810190828211818310171561069e5761069e610634565b816040528381528660208588010111156106b757600080fd5b836020870160208301376000602085830101528094505050505092915050565b600080600080608085870312156106ed57600080fd5b843567ffffffffffffffff8082111561070557600080fd5b6107118883890161064a565b9550602087013591508082111561072757600080fd5b6107338883890161064a565b9450604087013591508082111561074957600080fd5b6107558883890161064a565b9350606087013591508082111561076b57600080fd5b506107788782880161064a565b91505092959194509250565b600080600080600060a0868803121561079c57600080fd5b853567ffffffffffffffff808211156107b457600080fd5b6107c089838a0161064a565b965060208801359150808211156107d657600080fd5b6107e289838a0161064a565b955060408801359150808211156107f857600080fd5b61080489838a0161064a565b9450606088013591508082111561081a57600080fd5b61082689838a0161064a565b9350608088013591508082111561083c57600080fd5b506108498882890161064a565b9150509295509295909350565b60008060006060848603121561086b57600080fd5b833567ffffffffffffffff8082111561088357600080fd5b61088f8783880161064a565b945060208601359150808211156108a557600080fd5b6108b18783880161064a565b935060408601359150808211156108c757600080fd5b506108d48682870161064a565b9150509250925092565b600080604083850312156108f157600080fd5b823567ffffffffffffffff8082111561090957600080fd5b6109158683870161064a565b9350602085013591508082111561092b57600080fd5b506109388582860161064a565b9150509250929050565b60006020828403121561095457600080fd5b81356001600160a01b038116811461096b57600080fd5b9392505050565b60005b8381101561098d578181015183820152602001610975565b8381111561099c576000848401525b50505050565b600081518084526109ba816020860160208601610972565b601f01601f19169290920160200192915050565b6080815260006109e160808301876109a2565b82810360208401526109f381876109a2565b90508281036040840152610a0781866109a2565b90508281036060840152610a1b81856109a2565b979650505050505050565b60a081526000610a3960a08301886109a2565b8281036020840152610a4b81886109a2565b90508281036040840152610a5f81876109a2565b90508281036060840152610a7381866109a2565b90508281036080840152610a8781856109a2565b98975050505050505050565b60008251610aa5818460208701610972565b9190910192915050565b606081526000610ac260608301866109a2565b8281036020840152610ad481866109a2565b90508281036040840152610ae881856109a2565b9695505050505050565b604081526000610b0560408301856109a2565b8281036020840152610b1781856109a2565b95945050505050565b600181811c90821680610b3457607f821691505b60208210811415610b5557634e487b7160e01b600052602260045260246000fd5b5091905056fea2646970667358221220de3fa40cc7e89789eaecfdac74489093f9097707ec226c8688704a53dc90fee964736f6c63430008090033",
  "devdoc": {
    "kind": "dev",
    "methods": {
      "owner()": {
        "details": "Returns the address of the current owner."
      },
      "renounceOwnership()": {
        "details": "Leaves the contract without owner. It will not be possible to call `onlyOwner` functions anymore. Can only be called by the current owner. NOTE: Renouncing ownership will leave the contract without an owner, thereby removing any functionality that is only available to the owner."
      },
      "transferOwnership(address)": {
        "details": "Transfers ownership of the contract to a new account (`newOwner`). Can only be called by the current owner."
      }
    },
    "version": 1
  },
  "userdoc": {
    "kind": "user",
    "methods": {},
    "version": 1
  },
  "storageLayout": {
    "storage": [
      {
        "astId": 389,
        "contract": "contracts/Trident.sol:Trident",
        "label": "_owner",
        "offset": 0,
        "slot": "0",
        "type": "t_address"
      },
      {
        "astId": 3940,
        "contract": "contracts/Trident.sol:Trident",
        "label": "_pettletIdToCid",
        "offset": 0,
        "slot": "1",
        "type": "t_mapping(t_string_memory_ptr,t_string_storage)"
      },
      {
        "astId": 3944,
        "contract": "contracts/Trident.sol:Trident",
        "label": "_pelletExitDetails",
        "offset": 0,
        "slot": "2",
        "type": "t_mapping(t_string_memory_ptr,t_string_storage)"
      }
    ],
    "types": {
      "t_address": {
        "encoding": "inplace",
        "label": "address",
        "numberOfBytes": "20"
      },
      "t_mapping(t_string_memory_ptr,t_string_storage)": {
        "encoding": "mapping",
        "key": "t_string_memory_ptr",
        "label": "mapping(string => string)",
        "numberOfBytes": "32",
        "value": "t_string_storage"
      },
      "t_string_memory_ptr": {
        "encoding": "bytes",
        "label": "string",
        "numberOfBytes": "32"
      },
      "t_string_storage": {
        "encoding": "bytes",
        "label": "string",
        "numberOfBytes": "32"
      }
    }
  }
}