{
  "address": "0xE63296e992D9acEf6c1c9f5B25519254E5c7BCcf",
  "abi": [
    {
      "anonymous": false,
      "inputs": [
        {
          "indexed": false,
          "internalType": "string",
          "name": "pelletId",
          "type": "string"
        },
        {
          "indexed": false,
          "internalType": "string",
          "name": "pelletDetailsCid",
          "type": "string"
        }
      ],
      "name": "AddPelletEvent",
      "type": "event"
    },
    {
      "anonymous": false,
      "inputs": [
        {
          "indexed": false,
          "internalType": "string",
          "name": "soId",
          "type": "string"
        },
        {
          "indexed": false,
          "internalType": "string",
          "name": "pelletId",
          "type": "string"
        },
        {
          "indexed": false,
          "internalType": "string",
          "name": "pelletExitCid",
          "type": "string"
        }
      ],
      "name": "ExitPelletEvent",
      "type": "event"
    },
    {
      "anonymous": false,
      "inputs": [
        {
          "indexed": false,
          "internalType": "string",
          "name": "soId",
          "type": "string"
        },
        {
          "indexed": false,
          "internalType": "string",
          "name": "pelletId",
          "type": "string"
        },
        {
          "indexed": false,
          "internalType": "string",
          "name": "creelMachineId",
          "type": "string"
        },
        {
          "indexed": false,
          "internalType": "string",
          "name": "warpMachineLoadingCid",
          "type": "string"
        }
      ],
      "name": "LoadPelletEvent",
      "type": "event"
    },
    {
      "anonymous": false,
      "inputs": [
        {
          "indexed": true,
          "internalType": "address",
          "name": "previousOwner",
          "type": "address"
        },
        {
          "indexed": true,
          "internalType": "address",
          "name": "newOwner",
          "type": "address"
        }
      ],
      "name": "OwnershipTransferred",
      "type": "event"
    },
    {
      "anonymous": false,
      "inputs": [
        {
          "indexed": false,
          "internalType": "string",
          "name": "warpBeamId",
          "type": "string"
        },
        {
          "indexed": false,
          "internalType": "string",
          "name": "soId",
          "type": "string"
        },
        {
          "indexed": false,
          "internalType": "string",
          "name": "creelMachineId",
          "type": "string"
        },
        {
          "indexed": false,
          "internalType": "string",
          "name": "warpMachineOutputCid",
          "type": "string"
        }
      ],
      "name": "WarpingOutputEvent",
      "type": "event"
    },
    {
      "inputs": [
        {
          "internalType": "string",
          "name": "pelletId",
          "type": "string"
        },
        {
          "internalType": "string",
          "name": "pelletDetailsCid",
          "type": "string"
        }
      ],
      "name": "addPellet",
      "outputs": [],
      "stateMutability": "nonpayable",
      "type": "function"
    },
    {
      "inputs": [
        {
          "internalType": "string",
          "name": "warpBeamId",
          "type": "string"
        },
        {
          "internalType": "string",
          "name": "soId",
          "type": "string"
        },
        {
          "internalType": "string",
          "name": "creelMachineId",
          "type": "string"
        },
        {
          "internalType": "string",
          "name": "warpMachineOutputCid",
          "type": "string"
        }
      ],
      "name": "addWarpingOutput",
      "outputs": [],
      "stateMutability": "nonpayable",
      "type": "function"
    },
    {
      "inputs": [
        {
          "internalType": "string",
          "name": "soId",
          "type": "string"
        },
        {
          "internalType": "string",
          "name": "creelMachineId",
          "type": "string"
        },
        {
          "internalType": "string",
          "name": "pelletId",
          "type": "string"
        },
        {
          "internalType": "string",
          "name": "warpMachineLoadingCid",
          "type": "string"
        }
      ],
      "name": "loadPelletToWarpMachine",
      "outputs": [],
      "stateMutability": "nonpayable",
      "type": "function"
    },
    {
      "inputs": [
        {
          "internalType": "string",
          "name": "soId",
          "type": "string"
        },
        {
          "internalType": "string",
          "name": "pelletId",
          "type": "string"
        },
        {
          "internalType": "string",
          "name": "pelletExitCid",
          "type": "string"
        }
      ],
      "name": "movePelletFromWarehouse",
      "outputs": [],
      "stateMutability": "nonpayable",
      "type": "function"
    },
    {
      "inputs": [],
      "name": "owner",
      "outputs": [
        {
          "internalType": "address",
          "name": "",
          "type": "address"
        }
      ],
      "stateMutability": "view",
      "type": "function"
    },
    {
      "inputs": [],
      "name": "renounceOwnership",
      "outputs": [],
      "stateMutability": "nonpayable",
      "type": "function"
    },
    {
      "inputs": [
        {
          "internalType": "address",
          "name": "newOwner",
          "type": "address"
        }
      ],
      "name": "transferOwnership",
      "outputs": [],
      "stateMutability": "nonpayable",
      "type": "function"
    }
  ],
  "transactionHash": "0x746e63b484934f25e3c525a68cf25acc270f500c19eaf9cd5e8daba8828c3235",
  "args": [],
  "numDeployments": 1,
  "solcInputHash": "df76c9b64c07cf22cb0aa700be9f7de9",
  "bytecode": "0x608060405234801561001057600080fd5b5061001a3361001f565b61006f565b600080546001600160a01b038381166001600160a01b0319831681178455604051919092169283917f8be0079c531659141344cd1fd0a4f28419497f9722a3daafe3b4186f6b6457e09190a35050565b6108a28061007e6000396000f3fe608060405234801561001057600080fd5b506004361061007d5760003560e01c80638af2985c1161005b5780638af2985c146100b25780638da5cb5b146100c5578063a7277ab4146100e4578063f2fde38b146100f757600080fd5b806356a0814714610082578063715018a614610097578063878ec4671461009f575b600080fd5b610095610090366004610527565b61010a565b005b61009561017d565b6100956100ad3660046105af565b6101e8565b6100956100c03660046105af565b61022b565b600054604080516001600160a01b039092168252519081900360200190f35b6100956100f236600461065c565b610260565b6100956101053660046106c0565b6102d0565b8060028360405161011b9190610720565b9081526020016040518091039020908051906020019061013c9291906103eb565b507f090ad0491d002dffdcc4d806cd10480d6260d3725905de71f838b512e82f487383838360405161017093929190610768565b60405180910390a1505050565b6000546001600160a01b031633146101dc5760405162461bcd60e51b815260206004820181905260248201527f4f776e61626c653a2063616c6c6572206973206e6f7420746865206f776e657260448201526064015b60405180910390fd5b6101e6600061039b565b565b7ff6402d9fa09d8773d6b0db1fc8660f8853dea126d07c9542550ae4f2f7e87a4f8484848460405161021d94939291906107ab565b60405180910390a150505050565b7f51f29d16e8fb202ea95de45e4ad480b08c04dbadacbb898eda8bd970c9d068be8483858460405161021d94939291906107ab565b806001836040516102719190610720565b908152602001604051809103902090805190602001906102929291906103eb565b507f2dec00b9b3b774aa5c5d6b2f031542e738341546531203f3b86dfa0653cafce882826040516102c4929190610803565b60405180910390a15050565b6000546001600160a01b0316331461032a5760405162461bcd60e51b815260206004820181905260248201527f4f776e61626c653a2063616c6c6572206973206e6f7420746865206f776e657260448201526064016101d3565b6001600160a01b03811661038f5760405162461bcd60e51b815260206004820152602660248201527f4f776e61626c653a206e6577206f776e657220697320746865207a65726f206160448201526564647265737360d01b60648201526084016101d3565b6103988161039b565b50565b600080546001600160a01b038381166001600160a01b0319831681178455604051919092169283917f8be0079c531659141344cd1fd0a4f28419497f9722a3daafe3b4186f6b6457e09190a35050565b8280546103f790610831565b90600052602060002090601f016020900481019282610419576000855561045f565b82601f1061043257805160ff191683800117855561045f565b8280016001018555821561045f579182015b8281111561045f578251825591602001919060010190610444565b5061046b92915061046f565b5090565b5b8082111561046b5760008155600101610470565b634e487b7160e01b600052604160045260246000fd5b600082601f8301126104ab57600080fd5b813567ffffffffffffffff808211156104c6576104c6610484565b604051601f8301601f19908116603f011681019082821181831017156104ee576104ee610484565b8160405283815286602085880101111561050757600080fd5b836020870160208301376000602085830101528094505050505092915050565b60008060006060848603121561053c57600080fd5b833567ffffffffffffffff8082111561055457600080fd5b6105608783880161049a565b9450602086013591508082111561057657600080fd5b6105828783880161049a565b9350604086013591508082111561059857600080fd5b506105a58682870161049a565b9150509250925092565b600080600080608085870312156105c557600080fd5b843567ffffffffffffffff808211156105dd57600080fd5b6105e98883890161049a565b955060208701359150808211156105ff57600080fd5b61060b8883890161049a565b9450604087013591508082111561062157600080fd5b61062d8883890161049a565b9350606087013591508082111561064357600080fd5b506106508782880161049a565b91505092959194509250565b6000806040838503121561066f57600080fd5b823567ffffffffffffffff8082111561068757600080fd5b6106938683870161049a565b935060208501359150808211156106a957600080fd5b506106b68582860161049a565b9150509250929050565b6000602082840312156106d257600080fd5b81356001600160a01b03811681146106e957600080fd5b9392505050565b60005b8381101561070b5781810151838201526020016106f3565b8381111561071a576000848401525b50505050565b600082516107328184602087016106f0565b9190910192915050565b600081518084526107548160208601602086016106f0565b601f01601f19169290920160200192915050565b60608152600061077b606083018661073c565b828103602084015261078d818661073c565b905082810360408401526107a1818561073c565b9695505050505050565b6080815260006107be608083018761073c565b82810360208401526107d0818761073c565b905082810360408401526107e4818661073c565b905082810360608401526107f8818561073c565b979650505050505050565b604081526000610816604083018561073c565b8281036020840152610828818561073c565b95945050505050565b600181811c9082168061084557607f821691505b6020821081141561086657634e487b7160e01b600052602260045260246000fd5b5091905056fea2646970667358221220d5cdd5679c22c90e0d431915bc1aede6b2ef1236df4ab9ce4fec69e4dfc8b14064736f6c63430008090033",
  "devdoc": {
    "kind": "dev",
    "methods": {
      "owner()": {
        "details": "Returns the address of the current owner."
      },
      "renounceOwnership()": {
        "details": "Leaves the contract without owner. It will not be possible to call `onlyOwner` functions anymore. Can only be called by the current owner. NOTE: Renouncing ownership will leave the contract without an owner, thereby removing any functionality that is only available to the owner."
      },
      "transferOwnership(address)": {
        "details": "Transfers ownership of the contract to a new account (`newOwner`). Can only be called by the current owner."
      }
    },
    "version": 1
  },
  "userdoc": {
    "kind": "user",
    "methods": {},
    "version": 1
  },
  "storageLayout": {
    "storage": [
      {
        "astId": 389,
        "contract": "contracts/Trident.sol:Trident",
        "label": "_owner",
        "offset": 0,
        "slot": "0",
        "type": "t_address"
      },
      {
        "astId": 3940,
        "contract": "contracts/Trident.sol:Trident",
        "label": "_pettletIdToCid",
        "offset": 0,
        "slot": "1",
        "type": "t_mapping(t_string_memory_ptr,t_string_storage)"
      },
      {
        "astId": 3944,
        "contract": "contracts/Trident.sol:Trident",
        "label": "_pelletExitDetails",
        "offset": 0,
        "slot": "2",
        "type": "t_mapping(t_string_memory_ptr,t_string_storage)"
      }
    ],
    "types": {
      "t_address": {
        "encoding": "inplace",
        "label": "address",
        "numberOfBytes": "20"
      },
      "t_mapping(t_string_memory_ptr,t_string_storage)": {
        "encoding": "mapping",
        "key": "t_string_memory_ptr",
        "label": "mapping(string => string)",
        "numberOfBytes": "32",
        "value": "t_string_storage"
      },
      "t_string_memory_ptr": {
        "encoding": "bytes",
        "label": "string",
        "numberOfBytes": "32"
      },
      "t_string_storage": {
        "encoding": "bytes",
        "label": "string",
        "numberOfBytes": "32"
      }
    }
  }
}