{
  "address": "0x0f9d4F22c9CCF3834b4909C23a540d08e55757b2",
  "abi": [
    {
      "anonymous": false,
      "inputs": [
        {
          "indexed": false,
          "internalType": "string",
          "name": "pelletId",
          "type": "string"
        },
        {
          "indexed": false,
          "internalType": "string",
          "name": "pelletDetailsCid",
          "type": "string"
        }
      ],
      "name": "AddPelletEvent",
      "type": "event"
    },
    {
      "anonymous": false,
      "inputs": [
        {
          "indexed": false,
          "internalType": "string",
          "name": "soId",
          "type": "string"
        },
        {
          "indexed": false,
          "internalType": "string",
          "name": "pelletId",
          "type": "string"
        },
        {
          "indexed": false,
          "internalType": "string",
          "name": "pelletExitCid",
          "type": "string"
        }
      ],
      "name": "ExitPelletEvent",
      "type": "event"
    },
    {
      "anonymous": false,
      "inputs": [
        {
          "indexed": true,
          "internalType": "address",
          "name": "previousOwner",
          "type": "address"
        },
        {
          "indexed": true,
          "internalType": "address",
          "name": "newOwner",
          "type": "address"
        }
      ],
      "name": "OwnershipTransferred",
      "type": "event"
    },
    {
      "inputs": [
        {
          "internalType": "string",
          "name": "pelletId",
          "type": "string"
        },
        {
          "internalType": "string",
          "name": "pelletDetailsCid",
          "type": "string"
        }
      ],
      "name": "addPellet",
      "outputs": [],
      "stateMutability": "nonpayable",
      "type": "function"
    },
    {
      "inputs": [
        {
          "internalType": "string",
          "name": "soId",
          "type": "string"
        },
        {
          "internalType": "string",
          "name": "pelletId",
          "type": "string"
        },
        {
          "internalType": "string",
          "name": "pelletExitCid",
          "type": "string"
        }
      ],
      "name": "movePelletFromWarehouse",
      "outputs": [],
      "stateMutability": "nonpayable",
      "type": "function"
    },
    {
      "inputs": [],
      "name": "owner",
      "outputs": [
        {
          "internalType": "address",
          "name": "",
          "type": "address"
        }
      ],
      "stateMutability": "view",
      "type": "function"
    },
    {
      "inputs": [],
      "name": "renounceOwnership",
      "outputs": [],
      "stateMutability": "nonpayable",
      "type": "function"
    },
    {
      "inputs": [
        {
          "internalType": "address",
          "name": "newOwner",
          "type": "address"
        }
      ],
      "name": "transferOwnership",
      "outputs": [],
      "stateMutability": "nonpayable",
      "type": "function"
    }
  ],
  "transactionHash": "0xf1c46d8f1bd34e93d671f6f0f50c3b024ac7eff8ef9a7054384143c265d2fc71",
  "args": [],
  "numDeployments": 1,
  "solcInputHash": "ad26b6a839f352ff3bb83b6602ff4b46",
  "bytecode": "0x608060405234801561001057600080fd5b5061001a3361001f565b61006f565b600080546001600160a01b038381166001600160a01b0319831681178455604051919092169283917f8be0079c531659141344cd1fd0a4f28419497f9722a3daafe3b4186f6b6457e09190a35050565b6106d98061007e6000396000f3fe608060405234801561001057600080fd5b50600436106100575760003560e01c806356a081471461005c578063715018a6146100715780638da5cb5b14610079578063a7277ab414610098578063f2fde38b146100ab575b600080fd5b61006f61006a366004610463565b6100be565b005b61006f610131565b600054604080516001600160a01b039092168252519081900360200190f35b61006f6100a63660046104eb565b61019c565b61006f6100b936600461054f565b61020c565b806002836040516100cf91906105af565b908152602001604051809103902090805190602001906100f0929190610327565b507f090ad0491d002dffdcc4d806cd10480d6260d3725905de71f838b512e82f4873838383604051610124939291906105f7565b60405180910390a1505050565b6000546001600160a01b031633146101905760405162461bcd60e51b815260206004820181905260248201527f4f776e61626c653a2063616c6c6572206973206e6f7420746865206f776e657260448201526064015b60405180910390fd5b61019a60006102d7565b565b806001836040516101ad91906105af565b908152602001604051809103902090805190602001906101ce929190610327565b507f2dec00b9b3b774aa5c5d6b2f031542e738341546531203f3b86dfa0653cafce8828260405161020092919061063a565b60405180910390a15050565b6000546001600160a01b031633146102665760405162461bcd60e51b815260206004820181905260248201527f4f776e61626c653a2063616c6c6572206973206e6f7420746865206f776e65726044820152606401610187565b6001600160a01b0381166102cb5760405162461bcd60e51b815260206004820152602660248201527f4f776e61626c653a206e6577206f776e657220697320746865207a65726f206160448201526564647265737360d01b6064820152608401610187565b6102d4816102d7565b50565b600080546001600160a01b038381166001600160a01b0319831681178455604051919092169283917f8be0079c531659141344cd1fd0a4f28419497f9722a3daafe3b4186f6b6457e09190a35050565b82805461033390610668565b90600052602060002090601f016020900481019282610355576000855561039b565b82601f1061036e57805160ff191683800117855561039b565b8280016001018555821561039b579182015b8281111561039b578251825591602001919060010190610380565b506103a79291506103ab565b5090565b5b808211156103a757600081556001016103ac565b634e487b7160e01b600052604160045260246000fd5b600082601f8301126103e757600080fd5b813567ffffffffffffffff80821115610402576104026103c0565b604051601f8301601f19908116603f0116810190828211818310171561042a5761042a6103c0565b8160405283815286602085880101111561044357600080fd5b836020870160208301376000602085830101528094505050505092915050565b60008060006060848603121561047857600080fd5b833567ffffffffffffffff8082111561049057600080fd5b61049c878388016103d6565b945060208601359150808211156104b257600080fd5b6104be878388016103d6565b935060408601359150808211156104d457600080fd5b506104e1868287016103d6565b9150509250925092565b600080604083850312156104fe57600080fd5b823567ffffffffffffffff8082111561051657600080fd5b610522868387016103d6565b9350602085013591508082111561053857600080fd5b50610545858286016103d6565b9150509250929050565b60006020828403121561056157600080fd5b81356001600160a01b038116811461057857600080fd5b9392505050565b60005b8381101561059a578181015183820152602001610582565b838111156105a9576000848401525b50505050565b600082516105c181846020870161057f565b9190910192915050565b600081518084526105e381602086016020860161057f565b601f01601f19169290920160200192915050565b60608152600061060a60608301866105cb565b828103602084015261061c81866105cb565b9050828103604084015261063081856105cb565b9695505050505050565b60408152600061064d60408301856105cb565b828103602084015261065f81856105cb565b95945050505050565b600181811c9082168061067c57607f821691505b6020821081141561069d57634e487b7160e01b600052602260045260246000fd5b5091905056fea26469706673582212200c799364b6ff085572fd31846242a72c01a229c33abde0e47cc44c26338725e264736f6c63430008090033",
  "devdoc": {
    "kind": "dev",
    "methods": {
      "owner()": {
        "details": "Returns the address of the current owner."
      },
      "renounceOwnership()": {
        "details": "Leaves the contract without owner. It will not be possible to call `onlyOwner` functions anymore. Can only be called by the current owner. NOTE: Renouncing ownership will leave the contract without an owner, thereby removing any functionality that is only available to the owner."
      },
      "transferOwnership(address)": {
        "details": "Transfers ownership of the contract to a new account (`newOwner`). Can only be called by the current owner."
      }
    },
    "version": 1
  },
  "userdoc": {
    "kind": "user",
    "methods": {},
    "version": 1
  },
  "storageLayout": {
    "storage": [
      {
        "astId": 389,
        "contract": "contracts/Trident.sol:Trident",
        "label": "_owner",
        "offset": 0,
        "slot": "0",
        "type": "t_address"
      },
      {
        "astId": 3940,
        "contract": "contracts/Trident.sol:Trident",
        "label": "_pettletIdToCid",
        "offset": 0,
        "slot": "1",
        "type": "t_mapping(t_string_memory_ptr,t_string_storage)"
      },
      {
        "astId": 3944,
        "contract": "contracts/Trident.sol:Trident",
        "label": "_pelletExitDetails",
        "offset": 0,
        "slot": "2",
        "type": "t_mapping(t_string_memory_ptr,t_string_storage)"
      }
    ],
    "types": {
      "t_address": {
        "encoding": "inplace",
        "label": "address",
        "numberOfBytes": "20"
      },
      "t_mapping(t_string_memory_ptr,t_string_storage)": {
        "encoding": "mapping",
        "key": "t_string_memory_ptr",
        "label": "mapping(string => string)",
        "numberOfBytes": "32",
        "value": "t_string_storage"
      },
      "t_string_memory_ptr": {
        "encoding": "bytes",
        "label": "string",
        "numberOfBytes": "32"
      },
      "t_string_storage": {
        "encoding": "bytes",
        "label": "string",
        "numberOfBytes": "32"
      }
    }
  }
}