{
  "address": "0x8ee707713c210EA69c6515CbC903066ca5474d3F",
  "abi": [
    {
      "anonymous": false,
      "inputs": [
        {
          "indexed": false,
          "internalType": "string",
          "name": "pelletId",
          "type": "string"
        },
        {
          "indexed": false,
          "internalType": "string",
          "name": "pelletDetailsCid",
          "type": "string"
        }
      ],
      "name": "AddPelletEvent",
      "type": "event"
    },
    {
      "anonymous": false,
      "inputs": [
        {
          "indexed": false,
          "internalType": "string",
          "name": "soId",
          "type": "string"
        },
        {
          "indexed": false,
          "internalType": "string",
          "name": "pelletId",
          "type": "string"
        },
        {
          "indexed": false,
          "internalType": "string",
          "name": "pelletExitCid",
          "type": "string"
        }
      ],
      "name": "ExitPelletEvent",
      "type": "event"
    },
    {
      "anonymous": false,
      "inputs": [
        {
          "indexed": false,
          "internalType": "string",
          "name": "soId",
          "type": "string"
        },
        {
          "indexed": false,
          "internalType": "string",
          "name": "pelletId",
          "type": "string"
        },
        {
          "indexed": false,
          "internalType": "string",
          "name": "creelMachineId",
          "type": "string"
        },
        {
          "indexed": false,
          "internalType": "string",
          "name": "warpMachineLoadingCid",
          "type": "string"
        }
      ],
      "name": "LoadPelletEvent",
      "type": "event"
    },
    {
      "anonymous": false,
      "inputs": [
        {
          "indexed": false,
          "internalType": "string",
          "name": "soId",
          "type": "string"
        },
        {
          "indexed": false,
          "internalType": "string",
          "name": "warperBeamId",
          "type": "string"
        },
        {
          "indexed": false,
          "internalType": "string",
          "name": "sizingMachineId",
          "type": "string"
        },
        {
          "indexed": false,
          "internalType": "string",
          "name": "sizingMachineLoadingCid",
          "type": "string"
        }
      ],
      "name": "LoadWarperBeamEvent",
      "type": "event"
    },
    {
      "anonymous": false,
      "inputs": [
        {
          "indexed": true,
          "internalType": "address",
          "name": "previousOwner",
          "type": "address"
        },
        {
          "indexed": true,
          "internalType": "address",
          "name": "newOwner",
          "type": "address"
        }
      ],
      "name": "OwnershipTransferred",
      "type": "event"
    },
    {
      "anonymous": false,
      "inputs": [
        {
          "indexed": false,
          "internalType": "string",
          "name": "weaverBeamId",
          "type": "string"
        },
        {
          "indexed": false,
          "internalType": "string",
          "name": "soId",
          "type": "string"
        },
        {
          "indexed": false,
          "internalType": "string",
          "name": "sizingMachineId",
          "type": "string"
        },
        {
          "indexed": false,
          "internalType": "string",
          "name": "sizingMachineOutputCid",
          "type": "string"
        }
      ],
      "name": "SizingOutputEvent",
      "type": "event"
    },
    {
      "anonymous": false,
      "inputs": [
        {
          "indexed": false,
          "internalType": "string",
          "name": "warpBeamId",
          "type": "string"
        },
        {
          "indexed": false,
          "internalType": "string",
          "name": "soId",
          "type": "string"
        },
        {
          "indexed": false,
          "internalType": "string",
          "name": "creelMachineId",
          "type": "string"
        },
        {
          "indexed": false,
          "internalType": "string",
          "name": "warpMachineOutputCid",
          "type": "string"
        }
      ],
      "name": "WarpingOutputEvent",
      "type": "event"
    },
    {
      "inputs": [
        {
          "internalType": "string",
          "name": "pelletId",
          "type": "string"
        },
        {
          "internalType": "string",
          "name": "pelletDetailsCid",
          "type": "string"
        }
      ],
      "name": "addPellet",
      "outputs": [],
      "stateMutability": "nonpayable",
      "type": "function"
    },
    {
      "inputs": [
        {
          "internalType": "string",
          "name": "weaverBeamId",
          "type": "string"
        },
        {
          "internalType": "string",
          "name": "soId",
          "type": "string"
        },
        {
          "internalType": "string",
          "name": "sizingMachineId",
          "type": "string"
        },
        {
          "internalType": "string",
          "name": "sizingMachineOutputCid",
          "type": "string"
        }
      ],
      "name": "addSizingOutput",
      "outputs": [],
      "stateMutability": "nonpayable",
      "type": "function"
    },
    {
      "inputs": [
        {
          "internalType": "string",
          "name": "warpBeamId",
          "type": "string"
        },
        {
          "internalType": "string",
          "name": "soId",
          "type": "string"
        },
        {
          "internalType": "string",
          "name": "creelMachineId",
          "type": "string"
        },
        {
          "internalType": "string",
          "name": "warpMachineOutputCid",
          "type": "string"
        }
      ],
      "name": "addWarpingOutput",
      "outputs": [],
      "stateMutability": "nonpayable",
      "type": "function"
    },
    {
      "inputs": [
        {
          "internalType": "string",
          "name": "soId",
          "type": "string"
        },
        {
          "internalType": "string",
          "name": "sizingMachineId",
          "type": "string"
        },
        {
          "internalType": "string",
          "name": "warperBeamId",
          "type": "string"
        },
        {
          "internalType": "string",
          "name": "sizingMachineLoadingCid",
          "type": "string"
        }
      ],
      "name": "loadBeamToSizingMachine",
      "outputs": [],
      "stateMutability": "nonpayable",
      "type": "function"
    },
    {
      "inputs": [
        {
          "internalType": "string",
          "name": "soId",
          "type": "string"
        },
        {
          "internalType": "string",
          "name": "creelMachineId",
          "type": "string"
        },
        {
          "internalType": "string",
          "name": "pelletId",
          "type": "string"
        },
        {
          "internalType": "string",
          "name": "warpMachineLoadingCid",
          "type": "string"
        }
      ],
      "name": "loadPelletToWarpMachine",
      "outputs": [],
      "stateMutability": "nonpayable",
      "type": "function"
    },
    {
      "inputs": [
        {
          "internalType": "string",
          "name": "soId",
          "type": "string"
        },
        {
          "internalType": "string",
          "name": "pelletId",
          "type": "string"
        },
        {
          "internalType": "string",
          "name": "pelletExitCid",
          "type": "string"
        }
      ],
      "name": "movePelletFromWarehouse",
      "outputs": [],
      "stateMutability": "nonpayable",
      "type": "function"
    },
    {
      "inputs": [],
      "name": "owner",
      "outputs": [
        {
          "internalType": "address",
          "name": "",
          "type": "address"
        }
      ],
      "stateMutability": "view",
      "type": "function"
    },
    {
      "inputs": [],
      "name": "renounceOwnership",
      "outputs": [],
      "stateMutability": "nonpayable",
      "type": "function"
    },
    {
      "inputs": [
        {
          "internalType": "address",
          "name": "newOwner",
          "type": "address"
        }
      ],
      "name": "transferOwnership",
      "outputs": [],
      "stateMutability": "nonpayable",
      "type": "function"
    }
  ],
  "transactionHash": "0xaeae638041bf468255b890462718c1aa255503e0bf61bb5d0415e00524629a84",
  "args": [],
  "numDeployments": 1,
  "solcInputHash": "3e6e4f3659dc103f48fd411a48a16b79",
  "bytecode": "0x608060405234801561001057600080fd5b5061001a3361001f565b61006f565b600080546001600160a01b038381166001600160a01b0319831681178455604051919092169283917f8be0079c531659141344cd1fd0a4f28419497f9722a3daafe3b4186f6b6457e09190a35050565b6109488061007e6000396000f3fe608060405234801561001057600080fd5b50600436106100935760003560e01c80638af2985c116100665780638af2985c146100db5780638da5cb5b146100ee578063a7277ab41461010d578063e63d655414610120578063f2fde38b1461013357600080fd5b80633fc7b52c1461009857806356a08147146100ad578063715018a6146100c0578063878ec467146100c8575b600080fd5b6100ab6100a63660046105cd565b610146565b005b6100ab6100bb36600461067a565b610189565b6100ab6101fc565b6100ab6100d63660046105cd565b610267565b6100ab6100e93660046105cd565b61029c565b600054604080516001600160a01b039092168252519081900360200190f35b6100ab61011b366004610702565b6102d1565b6100ab61012e3660046105cd565b610341565b6100ab610141366004610766565b610376565b7fbb1d275465c7011aa5f816e1cae4ca4ed5f0227ecdb6850bb08236a16b4dbcfa8484848460405161017b94939291906107f2565b60405180910390a150505050565b8060028360405161019a919061084a565b908152602001604051809103902090805190602001906101bb929190610491565b507f090ad0491d002dffdcc4d806cd10480d6260d3725905de71f838b512e82f48738383836040516101ef93929190610866565b60405180910390a1505050565b6000546001600160a01b0316331461025b5760405162461bcd60e51b815260206004820181905260248201527f4f776e61626c653a2063616c6c6572206973206e6f7420746865206f776e657260448201526064015b60405180910390fd5b6102656000610441565b565b7ff6402d9fa09d8773d6b0db1fc8660f8853dea126d07c9542550ae4f2f7e87a4f8484848460405161017b94939291906107f2565b7f51f29d16e8fb202ea95de45e4ad480b08c04dbadacbb898eda8bd970c9d068be8483858460405161017b94939291906107f2565b806001836040516102e2919061084a565b90815260200160405180910390209080519060200190610303929190610491565b507f2dec00b9b3b774aa5c5d6b2f031542e738341546531203f3b86dfa0653cafce882826040516103359291906108a9565b60405180910390a15050565b7f512d42221a0ce07c6944e848699339ff476f4229dc1a44c6c11574fb9ef28e698483858460405161017b94939291906107f2565b6000546001600160a01b031633146103d05760405162461bcd60e51b815260206004820181905260248201527f4f776e61626c653a2063616c6c6572206973206e6f7420746865206f776e65726044820152606401610252565b6001600160a01b0381166104355760405162461bcd60e51b815260206004820152602660248201527f4f776e61626c653a206e6577206f776e657220697320746865207a65726f206160448201526564647265737360d01b6064820152608401610252565b61043e81610441565b50565b600080546001600160a01b038381166001600160a01b0319831681178455604051919092169283917f8be0079c531659141344cd1fd0a4f28419497f9722a3daafe3b4186f6b6457e09190a35050565b82805461049d906108d7565b90600052602060002090601f0160209004810192826104bf5760008555610505565b82601f106104d857805160ff1916838001178555610505565b82800160010185558215610505579182015b828111156105055782518255916020019190600101906104ea565b50610511929150610515565b5090565b5b808211156105115760008155600101610516565b634e487b7160e01b600052604160045260246000fd5b600082601f83011261055157600080fd5b813567ffffffffffffffff8082111561056c5761056c61052a565b604051601f8301601f19908116603f011681019082821181831017156105945761059461052a565b816040528381528660208588010111156105ad57600080fd5b836020870160208301376000602085830101528094505050505092915050565b600080600080608085870312156105e357600080fd5b843567ffffffffffffffff808211156105fb57600080fd5b61060788838901610540565b9550602087013591508082111561061d57600080fd5b61062988838901610540565b9450604087013591508082111561063f57600080fd5b61064b88838901610540565b9350606087013591508082111561066157600080fd5b5061066e87828801610540565b91505092959194509250565b60008060006060848603121561068f57600080fd5b833567ffffffffffffffff808211156106a757600080fd5b6106b387838801610540565b945060208601359150808211156106c957600080fd5b6106d587838801610540565b935060408601359150808211156106eb57600080fd5b506106f886828701610540565b9150509250925092565b6000806040838503121561071557600080fd5b823567ffffffffffffffff8082111561072d57600080fd5b61073986838701610540565b9350602085013591508082111561074f57600080fd5b5061075c85828601610540565b9150509250929050565b60006020828403121561077857600080fd5b81356001600160a01b038116811461078f57600080fd5b9392505050565b60005b838110156107b1578181015183820152602001610799565b838111156107c0576000848401525b50505050565b600081518084526107de816020860160208601610796565b601f01601f19169290920160200192915050565b60808152600061080560808301876107c6565b828103602084015261081781876107c6565b9050828103604084015261082b81866107c6565b9050828103606084015261083f81856107c6565b979650505050505050565b6000825161085c818460208701610796565b9190910192915050565b60608152600061087960608301866107c6565b828103602084015261088b81866107c6565b9050828103604084015261089f81856107c6565b9695505050505050565b6040815260006108bc60408301856107c6565b82810360208401526108ce81856107c6565b95945050505050565b600181811c908216806108eb57607f821691505b6020821081141561090c57634e487b7160e01b600052602260045260246000fd5b5091905056fea26469706673582212200fe241c30539b0cb98b791b83f2d3c7d3cdaad5f2289ee0e92d6058f31720c1864736f6c63430008090033",
  "devdoc": {
    "kind": "dev",
    "methods": {
      "owner()": {
        "details": "Returns the address of the current owner."
      },
      "renounceOwnership()": {
        "details": "Leaves the contract without owner. It will not be possible to call `onlyOwner` functions anymore. Can only be called by the current owner. NOTE: Renouncing ownership will leave the contract without an owner, thereby removing any functionality that is only available to the owner."
      },
      "transferOwnership(address)": {
        "details": "Transfers ownership of the contract to a new account (`newOwner`). Can only be called by the current owner."
      }
    },
    "version": 1
  },
  "userdoc": {
    "kind": "user",
    "methods": {},
    "version": 1
  },
  "storageLayout": {
    "storage": [
      {
        "astId": 389,
        "contract": "contracts/Trident.sol:Trident",
        "label": "_owner",
        "offset": 0,
        "slot": "0",
        "type": "t_address"
      },
      {
        "astId": 3940,
        "contract": "contracts/Trident.sol:Trident",
        "label": "_pettletIdToCid",
        "offset": 0,
        "slot": "1",
        "type": "t_mapping(t_string_memory_ptr,t_string_storage)"
      },
      {
        "astId": 3944,
        "contract": "contracts/Trident.sol:Trident",
        "label": "_pelletExitDetails",
        "offset": 0,
        "slot": "2",
        "type": "t_mapping(t_string_memory_ptr,t_string_storage)"
      }
    ],
    "types": {
      "t_address": {
        "encoding": "inplace",
        "label": "address",
        "numberOfBytes": "20"
      },
      "t_mapping(t_string_memory_ptr,t_string_storage)": {
        "encoding": "mapping",
        "key": "t_string_memory_ptr",
        "label": "mapping(string => string)",
        "numberOfBytes": "32",
        "value": "t_string_storage"
      },
      "t_string_memory_ptr": {
        "encoding": "bytes",
        "label": "string",
        "numberOfBytes": "32"
      },
      "t_string_storage": {
        "encoding": "bytes",
        "label": "string",
        "numberOfBytes": "32"
      }
    }
  }
}