{
  "address": "0x0bAdc7CCC033d8d8aEE5614B600bbfD785F3E1DE",
  "abi": [
    {
      "anonymous": false,
      "inputs": [
        {
          "indexed": false,
          "internalType": "string",
          "name": "pelletId",
          "type": "string"
        },
        {
          "indexed": false,
          "internalType": "string",
          "name": "pelletDetailsCid",
          "type": "string"
        }
      ],
      "name": "AddPelletEvent",
      "type": "event"
    },
    {
      "anonymous": false,
      "inputs": [
        {
          "indexed": false,
          "internalType": "string",
          "name": "soId",
          "type": "string"
        },
        {
          "indexed": false,
          "internalType": "string",
          "name": "pelletId",
          "type": "string"
        },
        {
          "indexed": false,
          "internalType": "string",
          "name": "pelletExitCid",
          "type": "string"
        }
      ],
      "name": "ExitPelletEvent",
      "type": "event"
    },
    {
      "anonymous": false,
      "inputs": [
        {
          "indexed": false,
          "internalType": "string",
          "name": "soId",
          "type": "string"
        },
        {
          "indexed": false,
          "internalType": "string",
          "name": "pelletId",
          "type": "string"
        },
        {
          "indexed": false,
          "internalType": "string",
          "name": "creelMachineId",
          "type": "string"
        },
        {
          "indexed": false,
          "internalType": "string",
          "name": "warpMachineLoadingCid",
          "type": "string"
        }
      ],
      "name": "LoadPelletEvent",
      "type": "event"
    },
    {
      "anonymous": false,
      "inputs": [
        {
          "indexed": true,
          "internalType": "address",
          "name": "previousOwner",
          "type": "address"
        },
        {
          "indexed": true,
          "internalType": "address",
          "name": "newOwner",
          "type": "address"
        }
      ],
      "name": "OwnershipTransferred",
      "type": "event"
    },
    {
      "inputs": [
        {
          "internalType": "string",
          "name": "pelletId",
          "type": "string"
        },
        {
          "internalType": "string",
          "name": "pelletDetailsCid",
          "type": "string"
        }
      ],
      "name": "addPellet",
      "outputs": [],
      "stateMutability": "nonpayable",
      "type": "function"
    },
    {
      "inputs": [
        {
          "internalType": "string",
          "name": "soId",
          "type": "string"
        },
        {
          "internalType": "string",
          "name": "creelMachineId",
          "type": "string"
        },
        {
          "internalType": "string",
          "name": "pelletId",
          "type": "string"
        },
        {
          "internalType": "string",
          "name": "warpMachineLoadingCid",
          "type": "string"
        }
      ],
      "name": "loadPelletToWarpMachine",
      "outputs": [],
      "stateMutability": "nonpayable",
      "type": "function"
    },
    {
      "inputs": [
        {
          "internalType": "string",
          "name": "soId",
          "type": "string"
        },
        {
          "internalType": "string",
          "name": "pelletId",
          "type": "string"
        },
        {
          "internalType": "string",
          "name": "pelletExitCid",
          "type": "string"
        }
      ],
      "name": "movePelletFromWarehouse",
      "outputs": [],
      "stateMutability": "nonpayable",
      "type": "function"
    },
    {
      "inputs": [],
      "name": "owner",
      "outputs": [
        {
          "internalType": "address",
          "name": "",
          "type": "address"
        }
      ],
      "stateMutability": "view",
      "type": "function"
    },
    {
      "inputs": [],
      "name": "renounceOwnership",
      "outputs": [],
      "stateMutability": "nonpayable",
      "type": "function"
    },
    {
      "inputs": [
        {
          "internalType": "address",
          "name": "newOwner",
          "type": "address"
        }
      ],
      "name": "transferOwnership",
      "outputs": [],
      "stateMutability": "nonpayable",
      "type": "function"
    }
  ],
  "transactionHash": "0x19f4bec33f5a9af7a98e9143f74eed0db839c0a456f5f88d060bb2df78ed8c85",
  "args": [],
  "numDeployments": 1,
  "solcInputHash": "ef66c2530191e86958d07fd704a5eec2",
  "bytecode": "0x608060405234801561001057600080fd5b5061001a3361001f565b61006f565b600080546001600160a01b038381166001600160a01b0319831681178455604051919092169283917f8be0079c531659141344cd1fd0a4f28419497f9722a3daafe3b4186f6b6457e09190a35050565b61083f8061007e6000396000f3fe608060405234801561001057600080fd5b50600436106100625760003560e01c806356a0814714610067578063715018a61461007c5780638af2985c146100845780638da5cb5b14610097578063a7277ab4146100b6578063f2fde38b146100c9575b600080fd5b61007a6100753660046104c4565b6100dc565b005b61007a61014f565b61007a61009236600461054c565b6101ba565b600054604080516001600160a01b039092168252519081900360200190f35b61007a6100c43660046105f9565b6101fd565b61007a6100d736600461065d565b61026d565b806002836040516100ed91906106bd565b9081526020016040518091039020908051906020019061010e929190610388565b507f090ad0491d002dffdcc4d806cd10480d6260d3725905de71f838b512e82f487383838360405161014293929190610705565b60405180910390a1505050565b6000546001600160a01b031633146101ae5760405162461bcd60e51b815260206004820181905260248201527f4f776e61626c653a2063616c6c6572206973206e6f7420746865206f776e657260448201526064015b60405180910390fd5b6101b86000610338565b565b7f51f29d16e8fb202ea95de45e4ad480b08c04dbadacbb898eda8bd970c9d068be848385846040516101ef9493929190610748565b60405180910390a150505050565b8060018360405161020e91906106bd565b9081526020016040518091039020908051906020019061022f929190610388565b507f2dec00b9b3b774aa5c5d6b2f031542e738341546531203f3b86dfa0653cafce882826040516102619291906107a0565b60405180910390a15050565b6000546001600160a01b031633146102c75760405162461bcd60e51b815260206004820181905260248201527f4f776e61626c653a2063616c6c6572206973206e6f7420746865206f776e657260448201526064016101a5565b6001600160a01b03811661032c5760405162461bcd60e51b815260206004820152602660248201527f4f776e61626c653a206e6577206f776e657220697320746865207a65726f206160448201526564647265737360d01b60648201526084016101a5565b61033581610338565b50565b600080546001600160a01b038381166001600160a01b0319831681178455604051919092169283917f8be0079c531659141344cd1fd0a4f28419497f9722a3daafe3b4186f6b6457e09190a35050565b828054610394906107ce565b90600052602060002090601f0160209004810192826103b657600085556103fc565b82601f106103cf57805160ff19168380011785556103fc565b828001600101855582156103fc579182015b828111156103fc5782518255916020019190600101906103e1565b5061040892915061040c565b5090565b5b80821115610408576000815560010161040d565b634e487b7160e01b600052604160045260246000fd5b600082601f83011261044857600080fd5b813567ffffffffffffffff8082111561046357610463610421565b604051601f8301601f19908116603f0116810190828211818310171561048b5761048b610421565b816040528381528660208588010111156104a457600080fd5b836020870160208301376000602085830101528094505050505092915050565b6000806000606084860312156104d957600080fd5b833567ffffffffffffffff808211156104f157600080fd5b6104fd87838801610437565b9450602086013591508082111561051357600080fd5b61051f87838801610437565b9350604086013591508082111561053557600080fd5b5061054286828701610437565b9150509250925092565b6000806000806080858703121561056257600080fd5b843567ffffffffffffffff8082111561057a57600080fd5b61058688838901610437565b9550602087013591508082111561059c57600080fd5b6105a888838901610437565b945060408701359150808211156105be57600080fd5b6105ca88838901610437565b935060608701359150808211156105e057600080fd5b506105ed87828801610437565b91505092959194509250565b6000806040838503121561060c57600080fd5b823567ffffffffffffffff8082111561062457600080fd5b61063086838701610437565b9350602085013591508082111561064657600080fd5b5061065385828601610437565b9150509250929050565b60006020828403121561066f57600080fd5b81356001600160a01b038116811461068657600080fd5b9392505050565b60005b838110156106a8578181015183820152602001610690565b838111156106b7576000848401525b50505050565b600082516106cf81846020870161068d565b9190910192915050565b600081518084526106f181602086016020860161068d565b601f01601f19169290920160200192915050565b60608152600061071860608301866106d9565b828103602084015261072a81866106d9565b9050828103604084015261073e81856106d9565b9695505050505050565b60808152600061075b60808301876106d9565b828103602084015261076d81876106d9565b9050828103604084015261078181866106d9565b9050828103606084015261079581856106d9565b979650505050505050565b6040815260006107b360408301856106d9565b82810360208401526107c581856106d9565b95945050505050565b600181811c908216806107e257607f821691505b6020821081141561080357634e487b7160e01b600052602260045260246000fd5b5091905056fea2646970667358221220217d5b40227b5b0b4515f84cf5b1a560e279ca3ac63ed93fd0535578fb4c1bd164736f6c63430008090033",
  "devdoc": {
    "kind": "dev",
    "methods": {
      "owner()": {
        "details": "Returns the address of the current owner."
      },
      "renounceOwnership()": {
        "details": "Leaves the contract without owner. It will not be possible to call `onlyOwner` functions anymore. Can only be called by the current owner. NOTE: Renouncing ownership will leave the contract without an owner, thereby removing any functionality that is only available to the owner."
      },
      "transferOwnership(address)": {
        "details": "Transfers ownership of the contract to a new account (`newOwner`). Can only be called by the current owner."
      }
    },
    "version": 1
  },
  "userdoc": {
    "kind": "user",
    "methods": {},
    "version": 1
  },
  "storageLayout": {
    "storage": [
      {
        "astId": 389,
        "contract": "contracts/Trident.sol:Trident",
        "label": "_owner",
        "offset": 0,
        "slot": "0",
        "type": "t_address"
      },
      {
        "astId": 3940,
        "contract": "contracts/Trident.sol:Trident",
        "label": "_pettletIdToCid",
        "offset": 0,
        "slot": "1",
        "type": "t_mapping(t_string_memory_ptr,t_string_storage)"
      },
      {
        "astId": 3944,
        "contract": "contracts/Trident.sol:Trident",
        "label": "_pelletExitDetails",
        "offset": 0,
        "slot": "2",
        "type": "t_mapping(t_string_memory_ptr,t_string_storage)"
      }
    ],
    "types": {
      "t_address": {
        "encoding": "inplace",
        "label": "address",
        "numberOfBytes": "20"
      },
      "t_mapping(t_string_memory_ptr,t_string_storage)": {
        "encoding": "mapping",
        "key": "t_string_memory_ptr",
        "label": "mapping(string => string)",
        "numberOfBytes": "32",
        "value": "t_string_storage"
      },
      "t_string_memory_ptr": {
        "encoding": "bytes",
        "label": "string",
        "numberOfBytes": "32"
      },
      "t_string_storage": {
        "encoding": "bytes",
        "label": "string",
        "numberOfBytes": "32"
      }
    }
  }
}