{
  "address": "0xBa41cAA9A1de6aEe2797abC3e5262164F8e09B7A",
  "abi": [
    {
      "anonymous": false,
      "inputs": [
        {
          "indexed": true,
          "internalType": "string",
          "name": "soId",
          "type": "string"
        },
        {
          "indexed": true,
          "internalType": "string",
          "name": "loomshedCid",
          "type": "string"
        }
      ],
      "name": "Loom",
      "type": "event"
    },
    {
      "anonymous": false,
      "inputs": [
        {
          "indexed": true,
          "internalType": "address",
          "name": "previousOwner",
          "type": "address"
        },
        {
          "indexed": true,
          "internalType": "address",
          "name": "newOwner",
          "type": "address"
        }
      ],
      "name": "OwnershipTransferred",
      "type": "event"
    },
    {
      "inputs": [
        {
          "internalType": "string",
          "name": "soId",
          "type": "string"
        },
        {
          "internalType": "string",
          "name": "warperBeamId",
          "type": "string"
        },
        {
          "internalType": "string",
          "name": "warpingCid",
          "type": "string"
        },
        {
          "internalType": "string[]",
          "name": "pelletIds",
          "type": "string[]"
        }
      ],
      "name": "addPelletsToWarpMachine",
      "outputs": [],
      "stateMutability": "nonpayable",
      "type": "function"
    },
    {
      "inputs": [
        {
          "internalType": "string",
          "name": "soId",
          "type": "string"
        },
        {
          "internalType": "string",
          "name": "sizingCid",
          "type": "string"
        }
      ],
      "name": "addWarperBeamsToSizingMachine",
      "outputs": [],
      "stateMutability": "nonpayable",
      "type": "function"
    },
    {
      "inputs": [
        {
          "internalType": "string",
          "name": "soId",
          "type": "string"
        },
        {
          "internalType": "string",
          "name": "loomshedCid",
          "type": "string"
        }
      ],
      "name": "addWeaverBeamsToLoomMachine",
      "outputs": [],
      "stateMutability": "nonpayable",
      "type": "function"
    },
    {
      "inputs": [
        {
          "internalType": "string",
          "name": "soId",
          "type": "string"
        }
      ],
      "name": "getSoDetails",
      "outputs": [
        {
          "components": [
            {
              "internalType": "string",
              "name": "soId",
              "type": "string"
            },
            {
              "internalType": "string",
              "name": "prepPo",
              "type": "string"
            },
            {
              "internalType": "string",
              "name": "pelletsCid",
              "type": "string"
            },
            {
              "internalType": "string",
              "name": "warpingCid",
              "type": "string"
            },
            {
              "internalType": "string",
              "name": "sizingCid",
              "type": "string"
            },
            {
              "internalType": "string",
              "name": "loomshedCid",
              "type": "string"
            },
            {
              "internalType": "string",
              "name": "fabricIds",
              "type": "string"
            }
          ],
          "internalType": "struct Trident.SupplyOrder",
          "name": "",
          "type": "tuple"
        }
      ],
      "stateMutability": "view",
      "type": "function"
    },
    {
      "inputs": [
        {
          "internalType": "string[]",
          "name": "pelletIds",
          "type": "string[]"
        },
        {
          "internalType": "string",
          "name": "exitPoint",
          "type": "string"
        },
        {
          "internalType": "uint256",
          "name": "exitTimestamp",
          "type": "uint256"
        }
      ],
      "name": "movePelletsFromWarehouse",
      "outputs": [],
      "stateMutability": "nonpayable",
      "type": "function"
    },
    {
      "inputs": [
        {
          "internalType": "string[]",
          "name": "warperBeamIds",
          "type": "string[]"
        }
      ],
      "name": "moveWarperBeamsFromWarpingUnit",
      "outputs": [],
      "stateMutability": "nonpayable",
      "type": "function"
    },
    {
      "inputs": [
        {
          "internalType": "string[]",
          "name": "warperBeamId",
          "type": "string[]"
        }
      ],
      "name": "moveWarperBeamsToWarping",
      "outputs": [],
      "stateMutability": "nonpayable",
      "type": "function"
    },
    {
      "inputs": [
        {
          "internalType": "string[]",
          "name": "weaverBeamIds",
          "type": "string[]"
        }
      ],
      "name": "moveWeaverBeamsFromSizingUnit",
      "outputs": [],
      "stateMutability": "nonpayable",
      "type": "function"
    },
    {
      "inputs": [],
      "name": "owner",
      "outputs": [
        {
          "internalType": "address",
          "name": "",
          "type": "address"
        }
      ],
      "stateMutability": "view",
      "type": "function"
    },
    {
      "inputs": [],
      "name": "renounceOwnership",
      "outputs": [],
      "stateMutability": "nonpayable",
      "type": "function"
    },
    {
      "inputs": [
        {
          "internalType": "address",
          "name": "newOwner",
          "type": "address"
        }
      ],
      "name": "transferOwnership",
      "outputs": [],
      "stateMutability": "nonpayable",
      "type": "function"
    }
  ],
  "transactionHash": "0xf8d1ae52ce3dacebd9b6cf45ab81b88f1e4428ec8955a04a930686f611e0a885",
  "args": [],
  "numDeployments": 1,
  "solcInputHash": "17e258d0a92e7a1d22f8c8bea54759fc",
  "bytecode": "0x608060405234801561001057600080fd5b5061001a3361001f565b61006f565b600080546001600160a01b038381166001600160a01b0319831681178455604051919092169283917f8be0079c531659141344cd1fd0a4f28419497f9722a3daafe3b4186f6b6457e09190a35050565b61138f8061007e6000396000f3fe608060405234801561001057600080fd5b50600436106100a95760003560e01c8063715018a611610071578063715018a61461010f5780638da5cb5b14610117578063a6c8c15414610137578063b11acd291461014a578063b180dd011461016a578063f2fde38b1461017d57600080fd5b80631d084919146100ae57806321bb8db3146100c35780632231f5c7146100d657806347f0cf08146100e95780636e854ffe146100fc575b600080fd5b6100c16100bc366004610f75565b610190565b005b6100c16100d1366004610fb2565b610228565b6100c16100e436600461101f565b610309565b6100c16100f73660046110cc565b61059e565b6100c161010a366004610f75565b6105d8565b6100c1610668565b6000546040516001600160a01b0390911681526020015b60405180910390f35b6100c16101453660046110cc565b6106d3565b61015d610158366004611130565b610767565b60405161012e91906111bd565b6100c1610178366004610f75565b610bd5565b6100c161018b366004611293565b610c6b565b60005b815181101561022457604051806040016040528060118152602001701b5bdd9959151bd4da5e9a5b99d55b9a5d607a1b8152506004836000815181106101db576101db6112c3565b60200260200101516040516101f091906112d9565b90815260200160405180910390209080519060200190610211929190610d86565b508061021c816112f5565b915050610193565b5050565b60005b8351811015610303576040805160a081018252601260608201908152716d6f76656446726f6d57617265686f75736560701b60808301528152602081018590529081018390528451819060069087908590811061028a5761028a6112c3565b602002602001015160405161029f91906112d9565b908152602001604051809103902060008201518160000190805190602001906102c9929190610d86565b5060208281015180516102e29260018501920190610d86565b506040919091015160029091015550806102fb816112f5565b91505061022b565b50505050565b60018460405161031991906112d9565b908152602001604051809103902060030180546103359061131e565b151590506104705761037d6040518060e00160405280606081526020016060815260200160608152602001606081526020016060815260200160608152602001606081525090565b8281606001819052508060018660405161039791906112d9565b908152602001604051809103902060008201518160000190805190602001906103c1929190610d86565b5060208281015180516103da9260018501920190610d86565b50604082015180516103f6916002840191602090910190610d86565b5060608201518051610412916003840191602090910190610d86565b506080820151805161042e916004840191602090910190610d86565b5060a0820151805161044a916005840191602090910190610d86565b5060c08201518051610466916006840191602090910190610d86565b50905050506104ad565b600060018560405161048291906112d9565b90815260200160405180910390209050828160030190805190602001906104aa929190610d86565b50505b6040518060400160405280600d81526020016c185d15d85c9c1a5b99d55b9a5d609a1b8152506004846040516104e391906112d9565b90815260200160405180910390209080519060200190610504929190610d86565b5060005b81518110156105975760006006838381518110610527576105276112c3565b602002602001015160405161053c91906112d9565b90815260408051602092819003830181208183019092526011808252707265636569766564417457617270696e6760781b93909101928352909250610582918391610d86565b5050808061058f906112f5565b915050610508565b5050505050565b60006001836040516105b091906112d9565b9081526020016040518091039020905081816004019080519060200190610303929190610d86565b60005b8151811015610224576040518060400160405280600d81526020016c185d15d85c9c1a5b99d55b9a5d609a1b81525060048360008151811061061f5761061f6112c3565b602002602001015160405161063491906112d9565b90815260200160405180910390209080519060200190610655929190610d86565b5080610660816112f5565b9150506105db565b6000546001600160a01b031633146106c75760405162461bcd60e51b815260206004820181905260248201527f4f776e61626c653a2063616c6c6572206973206e6f7420746865206f776e657260448201526064015b60405180910390fd5b6106d16000610d36565b565b60006001836040516106e591906112d9565b908152602001604051809103902090508181600501908051906020019061070d929190610d86565b508160405161071c91906112d9565b60405180910390208360405161073291906112d9565b604051908190038120907faa080e3b6063ebb0976353755db38c6cbb40d83f9e0223a37df51697b1cd6eb990600090a3505050565b6107a76040518060e00160405280606081526020016060815260200160608152602001606081526020016060815260200160608152602001606081525090565b6001826040516107b791906112d9565b90815260200160405180910390206040518060e00160405290816000820180546107e09061131e565b80601f016020809104026020016040519081016040528092919081815260200182805461080c9061131e565b80156108595780601f1061082e57610100808354040283529160200191610859565b820191906000526020600020905b81548152906001019060200180831161083c57829003601f168201915b505050505081526020016001820180546108729061131e565b80601f016020809104026020016040519081016040528092919081815260200182805461089e9061131e565b80156108eb5780601f106108c0576101008083540402835291602001916108eb565b820191906000526020600020905b8154815290600101906020018083116108ce57829003601f168201915b505050505081526020016002820180546109049061131e565b80601f01602080910402602001604051908101604052809291908181526020018280546109309061131e565b801561097d5780601f106109525761010080835404028352916020019161097d565b820191906000526020600020905b81548152906001019060200180831161096057829003601f168201915b505050505081526020016003820180546109969061131e565b80601f01602080910402602001604051908101604052809291908181526020018280546109c29061131e565b8015610a0f5780601f106109e457610100808354040283529160200191610a0f565b820191906000526020600020905b8154815290600101906020018083116109f257829003601f168201915b50505050508152602001600482018054610a289061131e565b80601f0160208091040260200160405190810160405280929190818152602001828054610a549061131e565b8015610aa15780601f10610a7657610100808354040283529160200191610aa1565b820191906000526020600020905b815481529060010190602001808311610a8457829003601f168201915b50505050508152602001600582018054610aba9061131e565b80601f0160208091040260200160405190810160405280929190818152602001828054610ae69061131e565b8015610b335780601f10610b0857610100808354040283529160200191610b33565b820191906000526020600020905b815481529060010190602001808311610b1657829003601f168201915b50505050508152602001600682018054610b4c9061131e565b80601f0160208091040260200160405190810160405280929190818152602001828054610b789061131e565b8015610bc55780601f10610b9a57610100808354040283529160200191610bc5565b820191906000526020600020905b815481529060010190602001808311610ba857829003601f168201915b5050505050815250509050919050565b60005b815181101561022457604051806040016040528060138152602001721b5bdd9959151bd31bdbdb54da1959155b9a5d606a1b815250600483600081518110610c2257610c226112c3565b6020026020010151604051610c3791906112d9565b90815260200160405180910390209080519060200190610c58929190610d86565b5080610c63816112f5565b915050610bd8565b6000546001600160a01b03163314610cc55760405162461bcd60e51b815260206004820181905260248201527f4f776e61626c653a2063616c6c6572206973206e6f7420746865206f776e657260448201526064016106be565b6001600160a01b038116610d2a5760405162461bcd60e51b815260206004820152602660248201527f4f776e61626c653a206e6577206f776e657220697320746865207a65726f206160448201526564647265737360d01b60648201526084016106be565b610d3381610d36565b50565b600080546001600160a01b038381166001600160a01b0319831681178455604051919092169283917f8be0079c531659141344cd1fd0a4f28419497f9722a3daafe3b4186f6b6457e09190a35050565b828054610d929061131e565b90600052602060002090601f016020900481019282610db45760008555610dfa565b82601f10610dcd57805160ff1916838001178555610dfa565b82800160010185558215610dfa579182015b82811115610dfa578251825591602001919060010190610ddf565b50610e06929150610e0a565b5090565b5b80821115610e065760008155600101610e0b565b634e487b7160e01b600052604160045260246000fd5b604051601f8201601f1916810167ffffffffffffffff81118282101715610e5e57610e5e610e1f565b604052919050565b600082601f830112610e7757600080fd5b813567ffffffffffffffff811115610e9157610e91610e1f565b610ea4601f8201601f1916602001610e35565b818152846020838601011115610eb957600080fd5b816020850160208301376000918101602001919091529392505050565b600082601f830112610ee757600080fd5b8135602067ffffffffffffffff80831115610f0457610f04610e1f565b8260051b610f13838201610e35565b9384528581018301938381019088861115610f2d57600080fd5b84880192505b85831015610f6957823584811115610f4b5760008081fd5b610f598a87838c0101610e66565b8352509184019190840190610f33565b98975050505050505050565b600060208284031215610f8757600080fd5b813567ffffffffffffffff811115610f9e57600080fd5b610faa84828501610ed6565b949350505050565b600080600060608486031215610fc757600080fd5b833567ffffffffffffffff80821115610fdf57600080fd5b610feb87838801610ed6565b9450602086013591508082111561100157600080fd5b5061100e86828701610e66565b925050604084013590509250925092565b6000806000806080858703121561103557600080fd5b843567ffffffffffffffff8082111561104d57600080fd5b61105988838901610e66565b9550602087013591508082111561106f57600080fd5b61107b88838901610e66565b9450604087013591508082111561109157600080fd5b61109d88838901610e66565b935060608701359150808211156110b357600080fd5b506110c087828801610ed6565b91505092959194509250565b600080604083850312156110df57600080fd5b823567ffffffffffffffff808211156110f757600080fd5b61110386838701610e66565b9350602085013591508082111561111957600080fd5b5061112685828601610e66565b9150509250929050565b60006020828403121561114257600080fd5b813567ffffffffffffffff81111561115957600080fd5b610faa84828501610e66565b60005b83811015611180578181015183820152602001611168565b838111156103035750506000910152565b600081518084526111a9816020860160208601611165565b601f01601f19169290920160200192915050565b602081526000825160e060208401526111da610100840182611191565b90506020840151601f19808584030160408601526111f88383611191565b925060408601519150808584030160608601526112158383611191565b925060608601519150808584030160808601526112328383611191565b925060808601519150808584030160a086015261124f8383611191565b925060a08601519150808584030160c086015261126c8383611191565b925060c08601519150808584030160e08601525061128a8282611191565b95945050505050565b6000602082840312156112a557600080fd5b81356001600160a01b03811681146112bc57600080fd5b9392505050565b634e487b7160e01b600052603260045260246000fd5b600082516112eb818460208701611165565b9190910192915050565b600060001982141561131757634e487b7160e01b600052601160045260246000fd5b5060010190565b600181811c9082168061133257607f821691505b6020821081141561135357634e487b7160e01b600052602260045260246000fd5b5091905056fea26469706673582212209d18e66d059c8770aa7ead31e5c8fc6cc3e3deaa57316dabe7971be7baf3eb9664736f6c63430008090033",
  "devdoc": {
    "kind": "dev",
    "methods": {
      "owner()": {
        "details": "Returns the address of the current owner."
      },
      "renounceOwnership()": {
        "details": "Leaves the contract without owner. It will not be possible to call `onlyOwner` functions anymore. Can only be called by the current owner. NOTE: Renouncing ownership will leave the contract without an owner, thereby removing any functionality that is only available to the owner."
      },
      "transferOwnership(address)": {
        "details": "Transfers ownership of the contract to a new account (`newOwner`). Can only be called by the current owner."
      }
    },
    "version": 1
  },
  "userdoc": {
    "kind": "user",
    "methods": {},
    "version": 1
  },
  "storageLayout": {
    "storage": [
      {
        "astId": 389,
        "contract": "contracts/Trident.sol:Trident",
        "label": "_owner",
        "offset": 0,
        "slot": "0",
        "type": "t_address"
      },
      {
        "astId": 3966,
        "contract": "contracts/Trident.sol:Trident",
        "label": "_soIdToSupplyDetails",
        "offset": 0,
        "slot": "1",
        "type": "t_mapping(t_string_memory_ptr,t_struct(SupplyOrder)3943_storage)"
      },
      {
        "astId": 3971,
        "contract": "contracts/Trident.sol:Trident",
        "label": "_griToWarehouseDetails",
        "offset": 0,
        "slot": "2",
        "type": "t_mapping(t_string_memory_ptr,t_struct(Warehouse)3961_storage)"
      },
      {
        "astId": 3976,
        "contract": "contracts/Trident.sol:Trident",
        "label": "_soIdToGris",
        "offset": 0,
        "slot": "3",
        "type": "t_mapping(t_string_memory_ptr,t_array(t_string_storage)dyn_storage)"
      },
      {
        "astId": 3980,
        "contract": "contracts/Trident.sol:Trident",
        "label": "_warperBeamIdToStatus",
        "offset": 0,
        "slot": "4",
        "type": "t_mapping(t_string_memory_ptr,t_string_storage)"
      },
      {
        "astId": 3984,
        "contract": "contracts/Trident.sol:Trident",
        "label": "_weaverBeamIdToStatus",
        "offset": 0,
        "slot": "5",
        "type": "t_mapping(t_string_memory_ptr,t_string_storage)"
      },
      {
        "astId": 3989,
        "contract": "contracts/Trident.sol:Trident",
        "label": "_pelletIdToDetails",
        "offset": 0,
        "slot": "6",
        "type": "t_mapping(t_string_memory_ptr,t_struct(Pellet)3928_storage)"
      }
    ],
    "types": {
      "t_address": {
        "encoding": "inplace",
        "label": "address",
        "numberOfBytes": "20"
      },
      "t_array(t_string_storage)dyn_storage": {
        "base": "t_string_storage",
        "encoding": "dynamic_array",
        "label": "string[]",
        "numberOfBytes": "32"
      },
      "t_mapping(t_string_memory_ptr,t_array(t_string_storage)dyn_storage)": {
        "encoding": "mapping",
        "key": "t_string_memory_ptr",
        "label": "mapping(string => string[])",
        "numberOfBytes": "32",
        "value": "t_array(t_string_storage)dyn_storage"
      },
      "t_mapping(t_string_memory_ptr,t_string_storage)": {
        "encoding": "mapping",
        "key": "t_string_memory_ptr",
        "label": "mapping(string => string)",
        "numberOfBytes": "32",
        "value": "t_string_storage"
      },
      "t_mapping(t_string_memory_ptr,t_struct(Pellet)3928_storage)": {
        "encoding": "mapping",
        "key": "t_string_memory_ptr",
        "label": "mapping(string => struct Trident.Pellet)",
        "numberOfBytes": "32",
        "value": "t_struct(Pellet)3928_storage"
      },
      "t_mapping(t_string_memory_ptr,t_struct(SupplyOrder)3943_storage)": {
        "encoding": "mapping",
        "key": "t_string_memory_ptr",
        "label": "mapping(string => struct Trident.SupplyOrder)",
        "numberOfBytes": "32",
        "value": "t_struct(SupplyOrder)3943_storage"
      },
      "t_mapping(t_string_memory_ptr,t_struct(Warehouse)3961_storage)": {
        "encoding": "mapping",
        "key": "t_string_memory_ptr",
        "label": "mapping(string => struct Trident.Warehouse)",
        "numberOfBytes": "32",
        "value": "t_struct(Warehouse)3961_storage"
      },
      "t_string_memory_ptr": {
        "encoding": "bytes",
        "label": "string",
        "numberOfBytes": "32"
      },
      "t_string_storage": {
        "encoding": "bytes",
        "label": "string",
        "numberOfBytes": "32"
      },
      "t_struct(Pellet)3928_storage": {
        "encoding": "inplace",
        "label": "struct Trident.Pellet",
        "members": [
          {
            "astId": 3923,
            "contract": "contracts/Trident.sol:Trident",
            "label": "status",
            "offset": 0,
            "slot": "0",
            "type": "t_string_storage"
          },
          {
            "astId": 3925,
            "contract": "contracts/Trident.sol:Trident",
            "label": "exitPoint",
            "offset": 0,
            "slot": "1",
            "type": "t_string_storage"
          },
          {
            "astId": 3927,
            "contract": "contracts/Trident.sol:Trident",
            "label": "exitTimestamp",
            "offset": 0,
            "slot": "2",
            "type": "t_uint256"
          }
        ],
        "numberOfBytes": "96"
      },
      "t_struct(SupplyOrder)3943_storage": {
        "encoding": "inplace",
        "label": "struct Trident.SupplyOrder",
        "members": [
          {
            "astId": 3930,
            "contract": "contracts/Trident.sol:Trident",
            "label": "soId",
            "offset": 0,
            "slot": "0",
            "type": "t_string_storage"
          },
          {
            "astId": 3932,
            "contract": "contracts/Trident.sol:Trident",
            "label": "prepPo",
            "offset": 0,
            "slot": "1",
            "type": "t_string_storage"
          },
          {
            "astId": 3934,
            "contract": "contracts/Trident.sol:Trident",
            "label": "pelletsCid",
            "offset": 0,
            "slot": "2",
            "type": "t_string_storage"
          },
          {
            "astId": 3936,
            "contract": "contracts/Trident.sol:Trident",
            "label": "warpingCid",
            "offset": 0,
            "slot": "3",
            "type": "t_string_storage"
          },
          {
            "astId": 3938,
            "contract": "contracts/Trident.sol:Trident",
            "label": "sizingCid",
            "offset": 0,
            "slot": "4",
            "type": "t_string_storage"
          },
          {
            "astId": 3940,
            "contract": "contracts/Trident.sol:Trident",
            "label": "loomshedCid",
            "offset": 0,
            "slot": "5",
            "type": "t_string_storage"
          },
          {
            "astId": 3942,
            "contract": "contracts/Trident.sol:Trident",
            "label": "fabricIds",
            "offset": 0,
            "slot": "6",
            "type": "t_string_storage"
          }
        ],
        "numberOfBytes": "224"
      },
      "t_struct(Warehouse)3961_storage": {
        "encoding": "inplace",
        "label": "struct Trident.Warehouse",
        "members": [
          {
            "astId": 3946,
            "contract": "contracts/Trident.sol:Trident",
            "label": "pelletIds",
            "offset": 0,
            "slot": "0",
            "type": "t_array(t_string_storage)dyn_storage"
          },
          {
            "astId": 3948,
            "contract": "contracts/Trident.sol:Trident",
            "label": "binId",
            "offset": 0,
            "slot": "1",
            "type": "t_string_storage"
          },
          {
            "astId": 3950,
            "contract": "contracts/Trident.sol:Trident",
            "label": "numberOfCones",
            "offset": 0,
            "slot": "2",
            "type": "t_uint256"
          },
          {
            "astId": 3952,
            "contract": "contracts/Trident.sol:Trident",
            "label": "quantity",
            "offset": 0,
            "slot": "3",
            "type": "t_uint256"
          },
          {
            "astId": 3954,
            "contract": "contracts/Trident.sol:Trident",
            "label": "yarnUnit",
            "offset": 0,
            "slot": "4",
            "type": "t_string_storage"
          },
          {
            "astId": 3956,
            "contract": "contracts/Trident.sol:Trident",
            "label": "employeeId",
            "offset": 0,
            "slot": "5",
            "type": "t_string_storage"
          },
          {
            "astId": 3958,
            "contract": "contracts/Trident.sol:Trident",
            "label": "exitPoint",
            "offset": 0,
            "slot": "6",
            "type": "t_string_storage"
          },
          {
            "astId": 3960,
            "contract": "contracts/Trident.sol:Trident",
            "label": "exitTimestamp",
            "offset": 0,
            "slot": "7",
            "type": "t_uint256"
          }
        ],
        "numberOfBytes": "256"
      },
      "t_uint256": {
        "encoding": "inplace",
        "label": "uint256",
        "numberOfBytes": "32"
      }
    }
  }
}