{
  "address": "0x3704400bCAE8332AC14d8E39037767Df1eb01632",
  "abi": [
    {
      "anonymous": false,
      "inputs": [
        {
          "indexed": false,
          "internalType": "string",
          "name": "pelletId",
          "type": "string"
        },
        {
          "indexed": false,
          "internalType": "string",
          "name": "soId",
          "type": "string"
        },
        {
          "indexed": false,
          "internalType": "string",
          "name": "pelletDetailsCid",
          "type": "string"
        }
      ],
      "name": "AddNewPelletEvent",
      "type": "event"
    },
    {
      "anonymous": false,
      "inputs": [
        {
          "indexed": false,
          "internalType": "string",
          "name": "pelletId",
          "type": "string"
        },
        {
          "indexed": false,
          "internalType": "string",
          "name": "pelletDetailsCid",
          "type": "string"
        }
      ],
      "name": "AddPelletEvent",
      "type": "event"
    },
    {
      "anonymous": false,
      "inputs": [
        {
          "indexed": false,
          "internalType": "string",
          "name": "lotId",
          "type": "string"
        },
        {
          "indexed": false,
          "internalType": "string",
          "name": "batchingCid",
          "type": "string"
        }
      ],
      "name": "BatchingEvent",
      "type": "event"
    },
    {
      "anonymous": false,
      "inputs": [
        {
          "indexed": false,
          "internalType": "string",
          "name": "soId",
          "type": "string"
        },
        {
          "indexed": false,
          "internalType": "string",
          "name": "pelletId",
          "type": "string"
        },
        {
          "indexed": false,
          "internalType": "string",
          "name": "pelletExitCid",
          "type": "string"
        }
      ],
      "name": "ExitPelletEvent",
      "type": "event"
    },
    {
      "anonymous": false,
      "inputs": [
        {
          "indexed": false,
          "internalType": "string",
          "name": "newRollId",
          "type": "string"
        },
        {
          "indexed": false,
          "internalType": "string",
          "name": "soId",
          "type": "string"
        },
        {
          "indexed": false,
          "internalType": "string",
          "name": "gfiMachineId",
          "type": "string"
        },
        {
          "indexed": false,
          "internalType": "string",
          "name": "gfiMachineOutputCid",
          "type": "string"
        }
      ],
      "name": "GfiOutputEvent",
      "type": "event"
    },
    {
      "anonymous": false,
      "inputs": [
        {
          "indexed": false,
          "internalType": "string",
          "name": "soId",
          "type": "string"
        },
        {
          "indexed": false,
          "internalType": "string",
          "name": "pelletId",
          "type": "string"
        },
        {
          "indexed": false,
          "internalType": "string",
          "name": "creelMachineId",
          "type": "string"
        },
        {
          "indexed": false,
          "internalType": "string",
          "name": "warpMachineLoadingCid",
          "type": "string"
        }
      ],
      "name": "LoadPelletEvent",
      "type": "event"
    },
    {
      "anonymous": false,
      "inputs": [
        {
          "indexed": false,
          "internalType": "string",
          "name": "soId",
          "type": "string"
        },
        {
          "indexed": false,
          "internalType": "string",
          "name": "rollId",
          "type": "string"
        },
        {
          "indexed": false,
          "internalType": "string",
          "name": "gfiMachineId",
          "type": "string"
        },
        {
          "indexed": false,
          "internalType": "string",
          "name": "gfiMachineLoadingCid",
          "type": "string"
        }
      ],
      "name": "LoadRollEvent",
      "type": "event"
    },
    {
      "anonymous": false,
      "inputs": [
        {
          "indexed": false,
          "internalType": "string",
          "name": "soId",
          "type": "string"
        },
        {
          "indexed": false,
          "internalType": "string",
          "name": "warperBeamId",
          "type": "string"
        },
        {
          "indexed": false,
          "internalType": "string",
          "name": "sizingMachineId",
          "type": "string"
        },
        {
          "indexed": false,
          "internalType": "string",
          "name": "sizingMachineLoadingCid",
          "type": "string"
        }
      ],
      "name": "LoadWarperBeamEvent",
      "type": "event"
    },
    {
      "anonymous": false,
      "inputs": [
        {
          "indexed": false,
          "internalType": "string",
          "name": "soId",
          "type": "string"
        },
        {
          "indexed": false,
          "internalType": "string",
          "name": "weaverBeamId",
          "type": "string"
        },
        {
          "indexed": false,
          "internalType": "string",
          "name": "pelletId",
          "type": "string"
        },
        {
          "indexed": false,
          "internalType": "string",
          "name": "loomMachineId",
          "type": "string"
        },
        {
          "indexed": false,
          "internalType": "string",
          "name": "loomMachineLoadingCid",
          "type": "string"
        }
      ],
      "name": "LoadWeaverBeamEvent",
      "type": "event"
    },
    {
      "anonymous": false,
      "inputs": [
        {
          "indexed": false,
          "internalType": "string",
          "name": "rollId",
          "type": "string"
        },
        {
          "indexed": false,
          "internalType": "string",
          "name": "soId",
          "type": "string"
        },
        {
          "indexed": false,
          "internalType": "string",
          "name": "loomMachineId",
          "type": "string"
        },
        {
          "indexed": false,
          "internalType": "string",
          "name": "loomMachineOutputCid",
          "type": "string"
        }
      ],
      "name": "LoomOutputEvent",
      "type": "event"
    },
    {
      "anonymous": false,
      "inputs": [
        {
          "indexed": true,
          "internalType": "address",
          "name": "previousOwner",
          "type": "address"
        },
        {
          "indexed": true,
          "internalType": "address",
          "name": "newOwner",
          "type": "address"
        }
      ],
      "name": "OwnershipTransferred",
      "type": "event"
    },
    {
      "anonymous": false,
      "inputs": [
        {
          "indexed": false,
          "internalType": "string",
          "name": "weaverBeamId",
          "type": "string"
        },
        {
          "indexed": false,
          "internalType": "string",
          "name": "soId",
          "type": "string"
        },
        {
          "indexed": false,
          "internalType": "string",
          "name": "sizingMachineId",
          "type": "string"
        },
        {
          "indexed": false,
          "internalType": "string",
          "name": "sizingMachineOutputCid",
          "type": "string"
        }
      ],
      "name": "SizingOutputEvent",
      "type": "event"
    },
    {
      "anonymous": false,
      "inputs": [
        {
          "indexed": false,
          "internalType": "string",
          "name": "binId",
          "type": "string"
        },
        {
          "indexed": false,
          "internalType": "string",
          "name": "soId",
          "type": "string"
        },
        {
          "indexed": false,
          "internalType": "string",
          "name": "weaverBeamId",
          "type": "string"
        },
        {
          "indexed": false,
          "internalType": "string",
          "name": "sizingStorageCid",
          "type": "string"
        }
      ],
      "name": "SizingStorageEvent",
      "type": "event"
    },
    {
      "anonymous": false,
      "inputs": [
        {
          "indexed": false,
          "internalType": "string",
          "name": "warpBeamId",
          "type": "string"
        },
        {
          "indexed": false,
          "internalType": "string",
          "name": "soId",
          "type": "string"
        },
        {
          "indexed": false,
          "internalType": "string",
          "name": "creelMachineId",
          "type": "string"
        },
        {
          "indexed": false,
          "internalType": "string",
          "name": "warpMachineOutputCid",
          "type": "string"
        }
      ],
      "name": "WarpingOutputEvent",
      "type": "event"
    },
    {
      "inputs": [
        {
          "internalType": "string",
          "name": "lotId",
          "type": "string"
        },
        {
          "internalType": "string",
          "name": "batchingCid",
          "type": "string"
        }
      ],
      "name": "addBatchingDetails",
      "outputs": [],
      "stateMutability": "nonpayable",
      "type": "function"
    },
    {
      "inputs": [
        {
          "internalType": "string",
          "name": "newRollId",
          "type": "string"
        },
        {
          "internalType": "string",
          "name": "soId",
          "type": "string"
        },
        {
          "internalType": "string",
          "name": "gfiMachineId",
          "type": "string"
        },
        {
          "internalType": "string",
          "name": "gfiMachineOutputCid",
          "type": "string"
        }
      ],
      "name": "addGfiOutput",
      "outputs": [],
      "stateMutability": "nonpayable",
      "type": "function"
    },
    {
      "inputs": [
        {
          "internalType": "string",
          "name": "rollId",
          "type": "string"
        },
        {
          "internalType": "string",
          "name": "soId",
          "type": "string"
        },
        {
          "internalType": "string",
          "name": "loomMachineId",
          "type": "string"
        },
        {
          "internalType": "string",
          "name": "loomMachineOutputCid",
          "type": "string"
        }
      ],
      "name": "addLoomshedOutput",
      "outputs": [],
      "stateMutability": "nonpayable",
      "type": "function"
    },
    {
      "inputs": [
        {
          "internalType": "string",
          "name": "pelletId",
          "type": "string"
        },
        {
          "internalType": "string",
          "name": "pelletDetailsCid",
          "type": "string"
        }
      ],
      "name": "addPellet",
      "outputs": [],
      "stateMutability": "nonpayable",
      "type": "function"
    },
    {
      "inputs": [
        {
          "internalType": "string",
          "name": "weaverBeamId",
          "type": "string"
        },
        {
          "internalType": "string",
          "name": "soId",
          "type": "string"
        },
        {
          "internalType": "string",
          "name": "sizingMachineId",
          "type": "string"
        },
        {
          "internalType": "string",
          "name": "sizingMachineOutputCid",
          "type": "string"
        }
      ],
      "name": "addSizingOutput",
      "outputs": [],
      "stateMutability": "nonpayable",
      "type": "function"
    },
    {
      "inputs": [
        {
          "internalType": "string",
          "name": "warpBeamId",
          "type": "string"
        },
        {
          "internalType": "string",
          "name": "soId",
          "type": "string"
        },
        {
          "internalType": "string",
          "name": "creelMachineId",
          "type": "string"
        },
        {
          "internalType": "string",
          "name": "warpMachineOutputCid",
          "type": "string"
        }
      ],
      "name": "addWarpingOutput",
      "outputs": [],
      "stateMutability": "nonpayable",
      "type": "function"
    },
    {
      "inputs": [
        {
          "internalType": "string",
          "name": "soId",
          "type": "string"
        },
        {
          "internalType": "string",
          "name": "sizingMachineId",
          "type": "string"
        },
        {
          "internalType": "string",
          "name": "warperBeamId",
          "type": "string"
        },
        {
          "internalType": "string",
          "name": "sizingMachineLoadingCid",
          "type": "string"
        }
      ],
      "name": "loadBeamToSizingMachine",
      "outputs": [],
      "stateMutability": "nonpayable",
      "type": "function"
    },
    {
      "inputs": [
        {
          "internalType": "string",
          "name": "soId",
          "type": "string"
        },
        {
          "internalType": "string",
          "name": "creelMachineId",
          "type": "string"
        },
        {
          "internalType": "string",
          "name": "pelletId",
          "type": "string"
        },
        {
          "internalType": "string",
          "name": "warpMachineLoadingCid",
          "type": "string"
        }
      ],
      "name": "loadPelletToWarpMachine",
      "outputs": [],
      "stateMutability": "nonpayable",
      "type": "function"
    },
    {
      "inputs": [
        {
          "internalType": "string",
          "name": "soId",
          "type": "string"
        },
        {
          "internalType": "string",
          "name": "rollId",
          "type": "string"
        },
        {
          "internalType": "string",
          "name": "gfiMachineId",
          "type": "string"
        },
        {
          "internalType": "string",
          "name": "gfiMachineLoadingCid",
          "type": "string"
        }
      ],
      "name": "loadRollToGfiMachine",
      "outputs": [],
      "stateMutability": "nonpayable",
      "type": "function"
    },
    {
      "inputs": [
        {
          "internalType": "string",
          "name": "soId",
          "type": "string"
        },
        {
          "internalType": "string",
          "name": "loomMachineId",
          "type": "string"
        },
        {
          "internalType": "string",
          "name": "weaverBeamId",
          "type": "string"
        },
        {
          "internalType": "string",
          "name": "pelletId",
          "type": "string"
        },
        {
          "internalType": "string",
          "name": "loomMachineLoadingCid",
          "type": "string"
        }
      ],
      "name": "loadWeaverBeamToLoomMachine",
      "outputs": [],
      "stateMutability": "nonpayable",
      "type": "function"
    },
    {
      "inputs": [
        {
          "internalType": "string",
          "name": "soId",
          "type": "string"
        },
        {
          "internalType": "string",
          "name": "pelletId",
          "type": "string"
        },
        {
          "internalType": "string",
          "name": "pelletExitCid",
          "type": "string"
        }
      ],
      "name": "movePelletFromWarehouse",
      "outputs": [],
      "stateMutability": "nonpayable",
      "type": "function"
    },
    {
      "inputs": [],
      "name": "owner",
      "outputs": [
        {
          "internalType": "address",
          "name": "",
          "type": "address"
        }
      ],
      "stateMutability": "view",
      "type": "function"
    },
    {
      "inputs": [],
      "name": "renounceOwnership",
      "outputs": [],
      "stateMutability": "nonpayable",
      "type": "function"
    },
    {
      "inputs": [
        {
          "internalType": "string",
          "name": "weaverBeamId",
          "type": "string"
        },
        {
          "internalType": "string",
          "name": "soId",
          "type": "string"
        },
        {
          "internalType": "string",
          "name": "binId",
          "type": "string"
        },
        {
          "internalType": "string",
          "name": "sizingStorageCid",
          "type": "string"
        }
      ],
      "name": "storeWeaverBeams",
      "outputs": [],
      "stateMutability": "nonpayable",
      "type": "function"
    },
    {
      "inputs": [
        {
          "internalType": "address",
          "name": "newOwner",
          "type": "address"
        }
      ],
      "name": "transferOwnership",
      "outputs": [],
      "stateMutability": "nonpayable",
      "type": "function"
    }
  ],
  "transactionHash": "0x6450b4d501bb1847b28a8b7d8753e672b29f81271ab4bae5db48afece5d12765",
  "args": [],
  "numDeployments": 1,
  "solcInputHash": "6ddb56396c2d33ed06d918ad56be3e89",
  "bytecode": "0x608060405234801561001057600080fd5b5061001a3361001f565b61006f565b600080546001600160a01b038381166001600160a01b0319831681178455604051919092169283917f8be0079c531659141344cd1fd0a4f28419497f9722a3daafe3b4186f6b6457e09190a35050565b610ca68061007e6000396000f3fe608060405234801561001057600080fd5b50600436106100f55760003560e01c8063878ec46711610097578063a7277ab411610066578063a7277ab4146101ce578063b7d8319d146101e1578063e63d6554146101f4578063f2fde38b1461020757600080fd5b8063878ec467146101765780638af2985c146101895780638da5cb5b1461019c578063a262fa6b146101bb57600080fd5b806356a08147116100d357806356a081471461013557806368e81dd5146101485780636dce718e1461015b578063715018a61461016e57600080fd5b806320f4173c146100fa5780632d01385f1461010f5780633fc7b52c14610122575b600080fd5b61010d6101083660046107ec565b61021a565b005b61010d61011d366004610899565b61025d565b61010d6101303660046107ec565b6102a3565b61010d61014336600461096b565b6102d8565b61010d6101563660046107ec565b61034b565b61010d6101693660046109f3565b610380565b61010d6103bd565b61010d6101843660046107ec565b610428565b61010d6101973660046107ec565b61045d565b600054604080516001600160a01b039092168252519081900360200190f35b61010d6101c93660046107ec565b610492565b61010d6101dc3660046109f3565b6104c7565b61010d6101ef3660046107ec565b61052b565b61010d6102023660046107ec565b610560565b61010d610215366004610a57565b610595565b7fc32725b21454c8debf79540c306c1f7bab1c8d56380e721a5ed0bebe69757ec88484848460405161024f9493929190610ae3565b60405180910390a150505050565b7f079e731e9eec2118c9283ce420514b761d2e839cb404cdcf95c98d099b35564f8585858585604051610294959493929190610b3b565b60405180910390a15050505050565b7fbb1d275465c7011aa5f816e1cae4ca4ed5f0227ecdb6850bb08236a16b4dbcfa8484848460405161024f9493929190610ae3565b806002836040516102e99190610ba8565b9081526020016040518091039020908051906020019061030a9291906106b0565b507f090ad0491d002dffdcc4d806cd10480d6260d3725905de71f838b512e82f487383838360405161033e93929190610bc4565b60405180910390a1505050565b7fc39f09db06c24d2087b567e2b77c4a8f90094eecdf4127abf6f1e14725ca473b8484848460405161024f9493929190610ae3565b7f94ba018c6409ad2e4428549735b8d975a9eb24bdc57dca968e7ec5abc5f3a09682826040516103b1929190610c07565b60405180910390a15050565b6000546001600160a01b0316331461041c5760405162461bcd60e51b815260206004820181905260248201527f4f776e61626c653a2063616c6c6572206973206e6f7420746865206f776e657260448201526064015b60405180910390fd5b6104266000610660565b565b7ff6402d9fa09d8773d6b0db1fc8660f8853dea126d07c9542550ae4f2f7e87a4f8484848460405161024f9493929190610ae3565b7f51f29d16e8fb202ea95de45e4ad480b08c04dbadacbb898eda8bd970c9d068be8483858460405161024f9493929190610ae3565b7f8b333d6cf23703468f76dda869592377e7e76e9e4b57ab08ef67138d988355928484848460405161024f9493929190610ae3565b806001836040516104d89190610ba8565b908152602001604051809103902090805190602001906104f99291906106b0565b507f2dec00b9b3b774aa5c5d6b2f031542e738341546531203f3b86dfa0653cafce882826040516103b1929190610c07565b7fac9b01ded77ccd0bf78da5b7f81cd2518c1292fa1c56e53dfa9335b090a471b58284868460405161024f9493929190610ae3565b7f512d42221a0ce07c6944e848699339ff476f4229dc1a44c6c11574fb9ef28e698483858460405161024f9493929190610ae3565b6000546001600160a01b031633146105ef5760405162461bcd60e51b815260206004820181905260248201527f4f776e61626c653a2063616c6c6572206973206e6f7420746865206f776e65726044820152606401610413565b6001600160a01b0381166106545760405162461bcd60e51b815260206004820152602660248201527f4f776e61626c653a206e6577206f776e657220697320746865207a65726f206160448201526564647265737360d01b6064820152608401610413565b61065d81610660565b50565b600080546001600160a01b038381166001600160a01b0319831681178455604051919092169283917f8be0079c531659141344cd1fd0a4f28419497f9722a3daafe3b4186f6b6457e09190a35050565b8280546106bc90610c35565b90600052602060002090601f0160209004810192826106de5760008555610724565b82601f106106f757805160ff1916838001178555610724565b82800160010185558215610724579182015b82811115610724578251825591602001919060010190610709565b50610730929150610734565b5090565b5b808211156107305760008155600101610735565b634e487b7160e01b600052604160045260246000fd5b600082601f83011261077057600080fd5b813567ffffffffffffffff8082111561078b5761078b610749565b604051601f8301601f19908116603f011681019082821181831017156107b3576107b3610749565b816040528381528660208588010111156107cc57600080fd5b836020870160208301376000602085830101528094505050505092915050565b6000806000806080858703121561080257600080fd5b843567ffffffffffffffff8082111561081a57600080fd5b6108268883890161075f565b9550602087013591508082111561083c57600080fd5b6108488883890161075f565b9450604087013591508082111561085e57600080fd5b61086a8883890161075f565b9350606087013591508082111561088057600080fd5b5061088d8782880161075f565b91505092959194509250565b600080600080600060a086880312156108b157600080fd5b853567ffffffffffffffff808211156108c957600080fd5b6108d589838a0161075f565b965060208801359150808211156108eb57600080fd5b6108f789838a0161075f565b9550604088013591508082111561090d57600080fd5b61091989838a0161075f565b9450606088013591508082111561092f57600080fd5b61093b89838a0161075f565b9350608088013591508082111561095157600080fd5b5061095e8882890161075f565b9150509295509295909350565b60008060006060848603121561098057600080fd5b833567ffffffffffffffff8082111561099857600080fd5b6109a48783880161075f565b945060208601359150808211156109ba57600080fd5b6109c68783880161075f565b935060408601359150808211156109dc57600080fd5b506109e98682870161075f565b9150509250925092565b60008060408385031215610a0657600080fd5b823567ffffffffffffffff80821115610a1e57600080fd5b610a2a8683870161075f565b93506020850135915080821115610a4057600080fd5b50610a4d8582860161075f565b9150509250929050565b600060208284031215610a6957600080fd5b81356001600160a01b0381168114610a8057600080fd5b9392505050565b60005b83811015610aa2578181015183820152602001610a8a565b83811115610ab1576000848401525b50505050565b60008151808452610acf816020860160208601610a87565b601f01601f19169290920160200192915050565b608081526000610af66080830187610ab7565b8281036020840152610b088187610ab7565b90508281036040840152610b1c8186610ab7565b90508281036060840152610b308185610ab7565b979650505050505050565b60a081526000610b4e60a0830188610ab7565b8281036020840152610b608188610ab7565b90508281036040840152610b748187610ab7565b90508281036060840152610b888186610ab7565b90508281036080840152610b9c8185610ab7565b98975050505050505050565b60008251610bba818460208701610a87565b9190910192915050565b606081526000610bd76060830186610ab7565b8281036020840152610be98186610ab7565b90508281036040840152610bfd8185610ab7565b9695505050505050565b604081526000610c1a6040830185610ab7565b8281036020840152610c2c8185610ab7565b95945050505050565b600181811c90821680610c4957607f821691505b60208210811415610c6a57634e487b7160e01b600052602260045260246000fd5b5091905056fea2646970667358221220358eaaaf540b5f1bbb13a6c7991853613cce8137ee68e2f6152131582bf28ae564736f6c63430008090033",
  "devdoc": {
    "kind": "dev",
    "methods": {
      "owner()": {
        "details": "Returns the address of the current owner."
      },
      "renounceOwnership()": {
        "details": "Leaves the contract without owner. It will not be possible to call `onlyOwner` functions anymore. Can only be called by the current owner. NOTE: Renouncing ownership will leave the contract without an owner, thereby removing any functionality that is only available to the owner."
      },
      "transferOwnership(address)": {
        "details": "Transfers ownership of the contract to a new account (`newOwner`). Can only be called by the current owner."
      }
    },
    "version": 1
  },
  "userdoc": {
    "kind": "user",
    "methods": {},
    "version": 1
  },
  "storageLayout": {
    "storage": [
      {
        "astId": 389,
        "contract": "contracts/Trident.sol:Trident",
        "label": "_owner",
        "offset": 0,
        "slot": "0",
        "type": "t_address"
      },
      {
        "astId": 3940,
        "contract": "contracts/Trident.sol:Trident",
        "label": "_pettletIdToCid",
        "offset": 0,
        "slot": "1",
        "type": "t_mapping(t_string_memory_ptr,t_string_storage)"
      },
      {
        "astId": 3944,
        "contract": "contracts/Trident.sol:Trident",
        "label": "_pelletExitDetails",
        "offset": 0,
        "slot": "2",
        "type": "t_mapping(t_string_memory_ptr,t_string_storage)"
      }
    ],
    "types": {
      "t_address": {
        "encoding": "inplace",
        "label": "address",
        "numberOfBytes": "20"
      },
      "t_mapping(t_string_memory_ptr,t_string_storage)": {
        "encoding": "mapping",
        "key": "t_string_memory_ptr",
        "label": "mapping(string => string)",
        "numberOfBytes": "32",
        "value": "t_string_storage"
      },
      "t_string_memory_ptr": {
        "encoding": "bytes",
        "label": "string",
        "numberOfBytes": "32"
      },
      "t_string_storage": {
        "encoding": "bytes",
        "label": "string",
        "numberOfBytes": "32"
      }
    }
  }
}