{
  "address": "0x0f961c78A9dcaD39efC89e3e5A95b00041335Ddb",
  "abi": [
    {
      "anonymous": false,
      "inputs": [
        {
          "indexed": false,
          "internalType": "string",
          "name": "pelletId",
          "type": "string"
        },
        {
          "indexed": false,
          "internalType": "string",
          "name": "pelletDetailsCid",
          "type": "string"
        }
      ],
      "name": "AddPelletEvent",
      "type": "event"
    },
    {
      "anonymous": false,
      "inputs": [
        {
          "indexed": false,
          "internalType": "string",
          "name": "lotId",
          "type": "string"
        },
        {
          "indexed": false,
          "internalType": "string",
          "name": "batchingCid",
          "type": "string"
        }
      ],
      "name": "BatchingEvent",
      "type": "event"
    },
    {
      "anonymous": false,
      "inputs": [
        {
          "indexed": false,
          "internalType": "string",
          "name": "ffiRollId",
          "type": "string"
        },
        {
          "indexed": false,
          "internalType": "string",
          "name": "soId",
          "type": "string"
        },
        {
          "indexed": false,
          "internalType": "string",
          "name": "newTag",
          "type": "string"
        },
        {
          "indexed": false,
          "internalType": "string",
          "name": "cuttingCid",
          "type": "string"
        }
      ],
      "name": "CuttingEvent",
      "type": "event"
    },
    {
      "anonymous": false,
      "inputs": [
        {
          "indexed": false,
          "internalType": "string",
          "name": "newTag",
          "type": "string"
        },
        {
          "indexed": false,
          "internalType": "string",
          "name": "soId",
          "type": "string"
        },
        {
          "indexed": false,
          "internalType": "string",
          "name": "cuttingStorageCid",
          "type": "string"
        }
      ],
      "name": "CuttingStorageEvent",
      "type": "event"
    },
    {
      "anonymous": false,
      "inputs": [
        {
          "indexed": false,
          "internalType": "string",
          "name": "lotId",
          "type": "string"
        },
        {
          "indexed": false,
          "internalType": "string",
          "name": "dyeingInputCid",
          "type": "string"
        }
      ],
      "name": "DyeingInputEvent",
      "type": "event"
    },
    {
      "anonymous": false,
      "inputs": [
        {
          "indexed": false,
          "internalType": "string",
          "name": "lotId",
          "type": "string"
        },
        {
          "indexed": false,
          "internalType": "string",
          "name": "dyeingOutputCid",
          "type": "string"
        }
      ],
      "name": "DyeingOutputEvent",
      "type": "event"
    },
    {
      "anonymous": false,
      "inputs": [
        {
          "indexed": false,
          "internalType": "string",
          "name": "soId",
          "type": "string"
        },
        {
          "indexed": false,
          "internalType": "string",
          "name": "pelletId",
          "type": "string"
        },
        {
          "indexed": false,
          "internalType": "string",
          "name": "pelletExitCid",
          "type": "string"
        }
      ],
      "name": "ExitPelletEvent",
      "type": "event"
    },
    {
      "anonymous": false,
      "inputs": [
        {
          "indexed": false,
          "internalType": "string",
          "name": "ffiRollId",
          "type": "string"
        },
        {
          "indexed": false,
          "internalType": "string",
          "name": "soId",
          "type": "string"
        },
        {
          "indexed": false,
          "internalType": "string",
          "name": "ffiOutputCid",
          "type": "string"
        }
      ],
      "name": "FfiOutputEvent",
      "type": "event"
    },
    {
      "anonymous": false,
      "inputs": [
        {
          "indexed": false,
          "internalType": "string",
          "name": "ffiRollId",
          "type": "string"
        },
        {
          "indexed": false,
          "internalType": "string",
          "name": "soId",
          "type": "string"
        },
        {
          "indexed": false,
          "internalType": "string",
          "name": "imsBinNumber",
          "type": "string"
        }
      ],
      "name": "FfiStorageEvent",
      "type": "event"
    },
    {
      "anonymous": false,
      "inputs": [
        {
          "indexed": false,
          "internalType": "string",
          "name": "lotId",
          "type": "string"
        },
        {
          "indexed": false,
          "internalType": "string",
          "name": "finishedFabricInputCid",
          "type": "string"
        }
      ],
      "name": "FinishedFabricInputEvent",
      "type": "event"
    },
    {
      "anonymous": false,
      "inputs": [
        {
          "indexed": false,
          "internalType": "string",
          "name": "lotId",
          "type": "string"
        },
        {
          "indexed": false,
          "internalType": "string",
          "name": "finishedFabricInspectionCid",
          "type": "string"
        }
      ],
      "name": "FinishedFabricInspectionEvent",
      "type": "event"
    },
    {
      "anonymous": false,
      "inputs": [
        {
          "indexed": false,
          "internalType": "string",
          "name": "lotId",
          "type": "string"
        },
        {
          "indexed": false,
          "internalType": "string",
          "name": "finishedFabricOutputCid",
          "type": "string"
        }
      ],
      "name": "FinishedFabricOutputEvent",
      "type": "event"
    },
    {
      "anonymous": false,
      "inputs": [
        {
          "indexed": false,
          "internalType": "string",
          "name": "newRollId",
          "type": "string"
        },
        {
          "indexed": false,
          "internalType": "string",
          "name": "soId",
          "type": "string"
        },
        {
          "indexed": false,
          "internalType": "string",
          "name": "gfiMachineId",
          "type": "string"
        },
        {
          "indexed": false,
          "internalType": "string",
          "name": "gfiMachineOutputCid",
          "type": "string"
        }
      ],
      "name": "GfiOutputEvent",
      "type": "event"
    },
    {
      "anonymous": false,
      "inputs": [
        {
          "indexed": false,
          "internalType": "string",
          "name": "soId",
          "type": "string"
        },
        {
          "indexed": false,
          "internalType": "string",
          "name": "pelletId",
          "type": "string"
        }
      ],
      "name": "IssueNewPelletEvent",
      "type": "event"
    },
    {
      "anonymous": false,
      "inputs": [
        {
          "indexed": false,
          "internalType": "string",
          "name": "soId",
          "type": "string"
        },
        {
          "indexed": false,
          "internalType": "string",
          "name": "processHousePo",
          "type": "string"
        }
      ],
      "name": "LinkProcessHousePoEvent",
      "type": "event"
    },
    {
      "anonymous": false,
      "inputs": [
        {
          "indexed": false,
          "internalType": "string",
          "name": "soId",
          "type": "string"
        },
        {
          "indexed": false,
          "internalType": "string",
          "name": "pelletId",
          "type": "string"
        },
        {
          "indexed": false,
          "internalType": "string",
          "name": "creelMachineId",
          "type": "string"
        },
        {
          "indexed": false,
          "internalType": "string",
          "name": "warpMachineLoadingCid",
          "type": "string"
        }
      ],
      "name": "LoadPelletEvent",
      "type": "event"
    },
    {
      "anonymous": false,
      "inputs": [
        {
          "indexed": false,
          "internalType": "string",
          "name": "soId",
          "type": "string"
        },
        {
          "indexed": false,
          "internalType": "string",
          "name": "rollId",
          "type": "string"
        },
        {
          "indexed": false,
          "internalType": "string",
          "name": "gfiMachineId",
          "type": "string"
        },
        {
          "indexed": false,
          "internalType": "string",
          "name": "gfiMachineLoadingCid",
          "type": "string"
        }
      ],
      "name": "LoadRollEvent",
      "type": "event"
    },
    {
      "anonymous": false,
      "inputs": [
        {
          "indexed": false,
          "internalType": "string",
          "name": "soId",
          "type": "string"
        },
        {
          "indexed": false,
          "internalType": "string",
          "name": "warperBeamId",
          "type": "string"
        },
        {
          "indexed": false,
          "internalType": "string",
          "name": "sizingMachineId",
          "type": "string"
        },
        {
          "indexed": false,
          "internalType": "string",
          "name": "sizingMachineLoadingCid",
          "type": "string"
        }
      ],
      "name": "LoadWarperBeamEvent",
      "type": "event"
    },
    {
      "anonymous": false,
      "inputs": [
        {
          "indexed": false,
          "internalType": "string",
          "name": "soId",
          "type": "string"
        },
        {
          "indexed": false,
          "internalType": "string",
          "name": "weaverBeamId",
          "type": "string"
        },
        {
          "indexed": false,
          "internalType": "string",
          "name": "pelletId",
          "type": "string"
        },
        {
          "indexed": false,
          "internalType": "string",
          "name": "loomMachineId",
          "type": "string"
        },
        {
          "indexed": false,
          "internalType": "string",
          "name": "loomMachineLoadingCid",
          "type": "string"
        }
      ],
      "name": "LoadWeaverBeamEvent",
      "type": "event"
    },
    {
      "anonymous": false,
      "inputs": [
        {
          "indexed": false,
          "internalType": "string",
          "name": "rollId",
          "type": "string"
        },
        {
          "indexed": false,
          "internalType": "string",
          "name": "soId",
          "type": "string"
        },
        {
          "indexed": false,
          "internalType": "string",
          "name": "loomMachineId",
          "type": "string"
        },
        {
          "indexed": false,
          "internalType": "string",
          "name": "loomMachineOutputCid",
          "type": "string"
        }
      ],
      "name": "LoomOutputEvent",
      "type": "event"
    },
    {
      "anonymous": false,
      "inputs": [
        {
          "indexed": false,
          "internalType": "string",
          "name": "lotId",
          "type": "string"
        },
        {
          "indexed": false,
          "internalType": "string",
          "name": "mercerizingInputCid",
          "type": "string"
        }
      ],
      "name": "MercerizingInputEvent",
      "type": "event"
    },
    {
      "anonymous": false,
      "inputs": [
        {
          "indexed": false,
          "internalType": "string",
          "name": "lotId",
          "type": "string"
        },
        {
          "indexed": false,
          "internalType": "string",
          "name": "mercerizingOutputCid",
          "type": "string"
        }
      ],
      "name": "MercerizingOutputEvent",
      "type": "event"
    },
    {
      "anonymous": false,
      "inputs": [
        {
          "indexed": false,
          "internalType": "string",
          "name": "lotId",
          "type": "string"
        },
        {
          "indexed": false,
          "internalType": "string",
          "name": "printingInputCid",
          "type": "string"
        }
      ],
      "name": "PrintingInputEvent",
      "type": "event"
    },
    {
      "anonymous": false,
      "inputs": [
        {
          "indexed": false,
          "internalType": "string",
          "name": "lotId",
          "type": "string"
        },
        {
          "indexed": false,
          "internalType": "string",
          "name": "printingOutputCid",
          "type": "string"
        }
      ],
      "name": "PrintingOutputEvent",
      "type": "event"
    },
    {
      "anonymous": false,
      "inputs": [
        {
          "indexed": false,
          "internalType": "string",
          "name": "lotId",
          "type": "string"
        },
        {
          "indexed": false,
          "internalType": "string",
          "name": "singingPtrInputCid",
          "type": "string"
        }
      ],
      "name": "SingingPtrInputEvent",
      "type": "event"
    },
    {
      "anonymous": false,
      "inputs": [
        {
          "indexed": false,
          "internalType": "string",
          "name": "lotId",
          "type": "string"
        },
        {
          "indexed": false,
          "internalType": "string",
          "name": "singingPtrOutputCid",
          "type": "string"
        }
      ],
      "name": "SingingPtrOutputEvent",
      "type": "event"
    },
    {
      "anonymous": false,
      "inputs": [
        {
          "indexed": false,
          "internalType": "string",
          "name": "weaverBeamId",
          "type": "string"
        },
        {
          "indexed": false,
          "internalType": "string",
          "name": "soId",
          "type": "string"
        },
        {
          "indexed": false,
          "internalType": "string",
          "name": "sizingMachineId",
          "type": "string"
        },
        {
          "indexed": false,
          "internalType": "string",
          "name": "sizingMachineOutputCid",
          "type": "string"
        }
      ],
      "name": "SizingOutputEvent",
      "type": "event"
    },
    {
      "anonymous": false,
      "inputs": [
        {
          "indexed": false,
          "internalType": "string",
          "name": "binId",
          "type": "string"
        },
        {
          "indexed": false,
          "internalType": "string",
          "name": "soId",
          "type": "string"
        },
        {
          "indexed": false,
          "internalType": "string",
          "name": "weaverBeamId",
          "type": "string"
        },
        {
          "indexed": false,
          "internalType": "string",
          "name": "sizingStorageCid",
          "type": "string"
        }
      ],
      "name": "SizingStorageEvent",
      "type": "event"
    },
    {
      "anonymous": false,
      "inputs": [
        {
          "indexed": false,
          "internalType": "string",
          "name": "warpBeamId",
          "type": "string"
        },
        {
          "indexed": false,
          "internalType": "string",
          "name": "soId",
          "type": "string"
        },
        {
          "indexed": false,
          "internalType": "string",
          "name": "creelMachineId",
          "type": "string"
        },
        {
          "indexed": false,
          "internalType": "string",
          "name": "warpMachineOutputCid",
          "type": "string"
        }
      ],
      "name": "WarpingOutputEvent",
      "type": "event"
    },
    {
      "inputs": [
        {
          "internalType": "string",
          "name": "lotId",
          "type": "string"
        },
        {
          "internalType": "string",
          "name": "batchingCid",
          "type": "string"
        }
      ],
      "name": "addBatchingDetails",
      "outputs": [],
      "stateMutability": "nonpayable",
      "type": "function"
    },
    {
      "inputs": [
        {
          "internalType": "string",
          "name": "ffiRollId",
          "type": "string"
        },
        {
          "internalType": "string",
          "name": "soId",
          "type": "string"
        },
        {
          "internalType": "string",
          "name": "newTag",
          "type": "string"
        },
        {
          "internalType": "string",
          "name": "cuttingCid",
          "type": "string"
        }
      ],
      "name": "addCuttingDetails",
      "outputs": [],
      "stateMutability": "nonpayable",
      "type": "function"
    },
    {
      "inputs": [
        {
          "internalType": "string",
          "name": "newTag",
          "type": "string"
        },
        {
          "internalType": "string",
          "name": "soId",
          "type": "string"
        },
        {
          "internalType": "string",
          "name": "cuttingStorageCid",
          "type": "string"
        }
      ],
      "name": "addCuttingStorage",
      "outputs": [],
      "stateMutability": "nonpayable",
      "type": "function"
    },
    {
      "inputs": [
        {
          "internalType": "string",
          "name": "lotId",
          "type": "string"
        },
        {
          "internalType": "string",
          "name": "dyeingInputCid",
          "type": "string"
        }
      ],
      "name": "addDyeingInput",
      "outputs": [],
      "stateMutability": "nonpayable",
      "type": "function"
    },
    {
      "inputs": [
        {
          "internalType": "string",
          "name": "lotId",
          "type": "string"
        },
        {
          "internalType": "string",
          "name": "dyeingOutputCid",
          "type": "string"
        }
      ],
      "name": "addDyeingOutput",
      "outputs": [],
      "stateMutability": "nonpayable",
      "type": "function"
    },
    {
      "inputs": [
        {
          "internalType": "string",
          "name": "ffiRollId",
          "type": "string"
        },
        {
          "internalType": "string",
          "name": "soId",
          "type": "string"
        },
        {
          "internalType": "string",
          "name": "ffiOutputCid",
          "type": "string"
        }
      ],
      "name": "addFfiOutput",
      "outputs": [],
      "stateMutability": "nonpayable",
      "type": "function"
    },
    {
      "inputs": [
        {
          "internalType": "string",
          "name": "ffiRollId",
          "type": "string"
        },
        {
          "internalType": "string",
          "name": "soId",
          "type": "string"
        },
        {
          "internalType": "string",
          "name": "imsBinNumber",
          "type": "string"
        }
      ],
      "name": "addFfiStorage",
      "outputs": [],
      "stateMutability": "nonpayable",
      "type": "function"
    },
    {
      "inputs": [
        {
          "internalType": "string",
          "name": "lotId",
          "type": "string"
        },
        {
          "internalType": "string",
          "name": "finishedFabricInputCid",
          "type": "string"
        }
      ],
      "name": "addFinishedFabricInput",
      "outputs": [],
      "stateMutability": "nonpayable",
      "type": "function"
    },
    {
      "inputs": [
        {
          "internalType": "string",
          "name": "lotId",
          "type": "string"
        },
        {
          "internalType": "string",
          "name": "finishedFabricInspectionCid",
          "type": "string"
        }
      ],
      "name": "addFinishedFabricInspection",
      "outputs": [],
      "stateMutability": "nonpayable",
      "type": "function"
    },
    {
      "inputs": [
        {
          "internalType": "string",
          "name": "lotId",
          "type": "string"
        },
        {
          "internalType": "string",
          "name": "finishedFabricOutputCid",
          "type": "string"
        }
      ],
      "name": "addFinishedFabricOutput",
      "outputs": [],
      "stateMutability": "nonpayable",
      "type": "function"
    },
    {
      "inputs": [
        {
          "internalType": "string",
          "name": "newRollId",
          "type": "string"
        },
        {
          "internalType": "string",
          "name": "soId",
          "type": "string"
        },
        {
          "internalType": "string",
          "name": "gfiMachineId",
          "type": "string"
        },
        {
          "internalType": "string",
          "name": "gfiMachineOutputCid",
          "type": "string"
        }
      ],
      "name": "addGfiOutput",
      "outputs": [],
      "stateMutability": "nonpayable",
      "type": "function"
    },
    {
      "inputs": [
        {
          "internalType": "string",
          "name": "rollId",
          "type": "string"
        },
        {
          "internalType": "string",
          "name": "soId",
          "type": "string"
        },
        {
          "internalType": "string",
          "name": "loomMachineId",
          "type": "string"
        },
        {
          "internalType": "string",
          "name": "loomMachineOutputCid",
          "type": "string"
        }
      ],
      "name": "addLoomshedOutput",
      "outputs": [],
      "stateMutability": "nonpayable",
      "type": "function"
    },
    {
      "inputs": [
        {
          "internalType": "string",
          "name": "lotId",
          "type": "string"
        },
        {
          "internalType": "string",
          "name": "mercerizingInputCid",
          "type": "string"
        }
      ],
      "name": "addMercerizingInput",
      "outputs": [],
      "stateMutability": "nonpayable",
      "type": "function"
    },
    {
      "inputs": [
        {
          "internalType": "string",
          "name": "lotId",
          "type": "string"
        },
        {
          "internalType": "string",
          "name": "mercerizingOutputCid",
          "type": "string"
        }
      ],
      "name": "addMercerizingOutput",
      "outputs": [],
      "stateMutability": "nonpayable",
      "type": "function"
    },
    {
      "inputs": [
        {
          "internalType": "string",
          "name": "pelletId",
          "type": "string"
        },
        {
          "internalType": "string",
          "name": "pelletDetailsCid",
          "type": "string"
        }
      ],
      "name": "addPellet",
      "outputs": [],
      "stateMutability": "nonpayable",
      "type": "function"
    },
    {
      "inputs": [
        {
          "internalType": "string",
          "name": "lotId",
          "type": "string"
        },
        {
          "internalType": "string",
          "name": "printingInputCid",
          "type": "string"
        }
      ],
      "name": "addPrintingInput",
      "outputs": [],
      "stateMutability": "nonpayable",
      "type": "function"
    },
    {
      "inputs": [
        {
          "internalType": "string",
          "name": "lotId",
          "type": "string"
        },
        {
          "internalType": "string",
          "name": "printingOutputCid",
          "type": "string"
        }
      ],
      "name": "addPrintingOutput",
      "outputs": [],
      "stateMutability": "nonpayable",
      "type": "function"
    },
    {
      "inputs": [
        {
          "internalType": "string",
          "name": "lotId",
          "type": "string"
        },
        {
          "internalType": "string",
          "name": "singingPtrInputCid",
          "type": "string"
        }
      ],
      "name": "addSingingPtrInput",
      "outputs": [],
      "stateMutability": "nonpayable",
      "type": "function"
    },
    {
      "inputs": [
        {
          "internalType": "string",
          "name": "lotId",
          "type": "string"
        },
        {
          "internalType": "string",
          "name": "singingPtrOutputCid",
          "type": "string"
        }
      ],
      "name": "addSingingPtrOutput",
      "outputs": [],
      "stateMutability": "nonpayable",
      "type": "function"
    },
    {
      "inputs": [
        {
          "internalType": "string",
          "name": "weaverBeamId",
          "type": "string"
        },
        {
          "internalType": "string",
          "name": "soId",
          "type": "string"
        },
        {
          "internalType": "string",
          "name": "sizingMachineId",
          "type": "string"
        },
        {
          "internalType": "string",
          "name": "sizingMachineOutputCid",
          "type": "string"
        }
      ],
      "name": "addSizingOutput",
      "outputs": [],
      "stateMutability": "nonpayable",
      "type": "function"
    },
    {
      "inputs": [
        {
          "internalType": "string",
          "name": "warpBeamId",
          "type": "string"
        },
        {
          "internalType": "string",
          "name": "soId",
          "type": "string"
        },
        {
          "internalType": "string",
          "name": "creelMachineId",
          "type": "string"
        },
        {
          "internalType": "string",
          "name": "warpMachineOutputCid",
          "type": "string"
        }
      ],
      "name": "addWarpingOutput",
      "outputs": [],
      "stateMutability": "nonpayable",
      "type": "function"
    },
    {
      "inputs": [
        {
          "internalType": "string",
          "name": "soId",
          "type": "string"
        },
        {
          "internalType": "string",
          "name": "pelletId",
          "type": "string"
        }
      ],
      "name": "issueNewPellet",
      "outputs": [],
      "stateMutability": "nonpayable",
      "type": "function"
    },
    {
      "inputs": [
        {
          "internalType": "string",
          "name": "soId",
          "type": "string"
        },
        {
          "internalType": "string",
          "name": "processHousePo",
          "type": "string"
        }
      ],
      "name": "linkProcessHousePo",
      "outputs": [],
      "stateMutability": "nonpayable",
      "type": "function"
    },
    {
      "inputs": [
        {
          "internalType": "string",
          "name": "soId",
          "type": "string"
        },
        {
          "internalType": "string",
          "name": "sizingMachineId",
          "type": "string"
        },
        {
          "internalType": "string",
          "name": "warperBeamId",
          "type": "string"
        },
        {
          "internalType": "string",
          "name": "sizingMachineLoadingCid",
          "type": "string"
        }
      ],
      "name": "loadBeamToSizingMachine",
      "outputs": [],
      "stateMutability": "nonpayable",
      "type": "function"
    },
    {
      "inputs": [
        {
          "internalType": "string",
          "name": "soId",
          "type": "string"
        },
        {
          "internalType": "string",
          "name": "creelMachineId",
          "type": "string"
        },
        {
          "internalType": "string",
          "name": "pelletId",
          "type": "string"
        },
        {
          "internalType": "string",
          "name": "warpMachineLoadingCid",
          "type": "string"
        }
      ],
      "name": "loadPelletToWarpMachine",
      "outputs": [],
      "stateMutability": "nonpayable",
      "type": "function"
    },
    {
      "inputs": [
        {
          "internalType": "string",
          "name": "soId",
          "type": "string"
        },
        {
          "internalType": "string",
          "name": "rollId",
          "type": "string"
        },
        {
          "internalType": "string",
          "name": "gfiMachineId",
          "type": "string"
        },
        {
          "internalType": "string",
          "name": "gfiMachineLoadingCid",
          "type": "string"
        }
      ],
      "name": "loadRollToGfiMachine",
      "outputs": [],
      "stateMutability": "nonpayable",
      "type": "function"
    },
    {
      "inputs": [
        {
          "internalType": "string",
          "name": "soId",
          "type": "string"
        },
        {
          "internalType": "string",
          "name": "loomMachineId",
          "type": "string"
        },
        {
          "internalType": "string",
          "name": "weaverBeamId",
          "type": "string"
        },
        {
          "internalType": "string",
          "name": "pelletId",
          "type": "string"
        },
        {
          "internalType": "string",
          "name": "loomMachineLoadingCid",
          "type": "string"
        }
      ],
      "name": "loadWeaverBeamToLoomMachine",
      "outputs": [],
      "stateMutability": "nonpayable",
      "type": "function"
    },
    {
      "inputs": [
        {
          "internalType": "string",
          "name": "soId",
          "type": "string"
        },
        {
          "internalType": "string",
          "name": "pelletId",
          "type": "string"
        },
        {
          "internalType": "string",
          "name": "pelletExitCid",
          "type": "string"
        }
      ],
      "name": "movePelletFromWarehouse",
      "outputs": [],
      "stateMutability": "nonpayable",
      "type": "function"
    },
    {
      "inputs": [
        {
          "internalType": "string",
          "name": "weaverBeamId",
          "type": "string"
        },
        {
          "internalType": "string",
          "name": "soId",
          "type": "string"
        },
        {
          "internalType": "string",
          "name": "binId",
          "type": "string"
        },
        {
          "internalType": "string",
          "name": "sizingStorageCid",
          "type": "string"
        }
      ],
      "name": "storeWeaverBeams",
      "outputs": [],
      "stateMutability": "nonpayable",
      "type": "function"
    }
  ],
  "transactionHash": "0x9970bef64ab14a13253157aae38d6730a476df94f7635965301b8957efdd623d",
  "args": [],
  "numDeployments": 1,
  "solcInputHash": "911eddc27da08ca597af741138831587",
  "bytecode": "0x608060405234801561001057600080fd5b5061101e806100206000396000f3fe608060405234801561001057600080fd5b50600436106101cf5760003560e01c8063773aaefb11610104578063a262fa6b116100a2578063e49f028f11610071578063e49f028f146103b1578063e63d6554146103c4578063e96fac40146103d7578063f7806479146103ea57600080fd5b8063a262fa6b14610365578063a7277ab414610378578063b7d8319d1461038b578063c8493fe91461039e57600080fd5b8063878ec467116100de578063878ec467146103195780638af2985c1461032c5780639ba399db1461033f578063a1ce44b81461035257600080fd5b8063773aaefb146102e0578063789bb410146102f357806382a10a931461030657600080fd5b80633fc7b52c1161017157806368e81dd51161014b57806368e81dd5146102945780636ab4017b146102a75780636d6d935d146102ba5780636dce718e146102cd57600080fd5b80633fc7b52c1461025b57806346e9da0d1461026e57806356a081471461028157600080fd5b8063240135b5116101ad578063240135b51461020f5780632d01385f1461022257806330c2827a146102355780633e2f55e31461024857600080fd5b8063122e6ddf146101d45780631326e936146101e957806320f4173c146101fc575b600080fd5b6101e76101e2366004610b94565b6103fd565b005b6101e76101f7366004610c1c565b61043d565b6101e761020a366004610c1c565b610480565b6101e761021d366004610b94565b6104b5565b6101e7610230366004610cc9565b6104e8565b6101e7610243366004610d9b565b61052e565b6101e7610256366004610d9b565b61056b565b6101e7610269366004610c1c565b61059c565b6101e761027c366004610d9b565b6105d1565b6101e761028f366004610b94565b610602565b6101e76102a2366004610c1c565b610668565b6101e76102b5366004610d9b565b61069d565b6101e76102c8366004610b94565b6106ce565b6101e76102db366004610d9b565b610701565b6101e76102ee366004610d9b565b610732565b6101e7610301366004610d9b565b610763565b6101e7610314366004610d9b565b610794565b6101e7610327366004610c1c565b6107c5565b6101e761033a366004610c1c565b6107fa565b6101e761034d366004610d9b565b61082f565b6101e7610360366004610d9b565b610860565b6101e7610373366004610c1c565b610891565b6101e7610386366004610d9b565b6108c6565b6101e7610399366004610c1c565b61092a565b6101e76103ac366004610d9b565b61095f565b6101e76103bf366004610d9b565b610990565b6101e76103d2366004610c1c565b6109c1565b6101e76103e5366004610d9b565b6109f6565b6101e76103f8366004610d9b565b610a27565b7fab5f419ee6f6a706fd6b00968d534e7de96251c912dccde56af77accd2a6746283838360405161043093929190610e5b565b60405180910390a1505050565b7fb98ba971ebd97337a298f3ce374d0f70c762f593d3c49281beed9b1989faede7848484846040516104729493929190610e9e565b60405180910390a150505050565b7fc32725b21454c8debf79540c306c1f7bab1c8d56380e721a5ed0bebe69757ec8848484846040516104729493929190610e9e565b7fdeb2ec449da3a64b416c50b0123329f472866d659c2e95d896050390ee82b03783838360405161043093929190610e5b565b7f079e731e9eec2118c9283ce420514b761d2e839cb404cdcf95c98d099b35564f858585858560405161051f959493929190610ef6565b60405180910390a15050505050565b7faf52907a9c108e448cad2e8bb61158ea81fed470a4ca9040dc79ae63b82e90ba828260405161055f929190610f63565b60405180910390a15050565b7f6f8934c5aa6a674dd6b975cf6b583b87c5495d56191044d24feaebb3709eeebd828260405161055f929190610f63565b7fbb1d275465c7011aa5f816e1cae4ca4ed5f0227ecdb6850bb08236a16b4dbcfa848484846040516104729493929190610e9e565b7f3c5eca2ce4a21eb762e88dc9bd9f0a03219d2b5acad92c948899be773627c304828260405161055f929190610f63565b806001836040516106139190610f91565b90815260200160405180910390209080519060200190610634929190610a58565b507f090ad0491d002dffdcc4d806cd10480d6260d3725905de71f838b512e82f487383838360405161043093929190610e5b565b7fc39f09db06c24d2087b567e2b77c4a8f90094eecdf4127abf6f1e14725ca473b848484846040516104729493929190610e9e565b7fc20c86ccfe909716fb7c8bd86cfc66a39cb64fe09ce3911863ce4729fe0fa00f828260405161055f929190610f63565b7fca0e45ac07d292e6b37672c4e7a772e526fa17dd61ca22315a301a3350d1256283838360405161043093929190610e5b565b7f94ba018c6409ad2e4428549735b8d975a9eb24bdc57dca968e7ec5abc5f3a096828260405161055f929190610f63565b7f3b70dd7b2b51c9028b48c2fd5730a3e44a8b52fcf0b0e22f3a840a69fb00f23b828260405161055f929190610f63565b7fe995683306ce83c3518711ea22c50b46f9c6abc7d60f820cf90282ec6ae4959e828260405161055f929190610f63565b7f4e690007acf113698bd564d490c30d306cd7a43bbc8f8ff9b8e1ed1db5714b74828260405161055f929190610f63565b7ff6402d9fa09d8773d6b0db1fc8660f8853dea126d07c9542550ae4f2f7e87a4f848484846040516104729493929190610e9e565b7f51f29d16e8fb202ea95de45e4ad480b08c04dbadacbb898eda8bd970c9d068be848385846040516104729493929190610e9e565b7f67025a0a11e204b8b10f1e84376fe10d90c82944454a150e61bf1aa197946c59828260405161055f929190610f63565b7f1807589d336eeb41dec78a7921e4f8815f464aae5474125f00e892f5aa3eef84828260405161055f929190610f63565b7f8b333d6cf23703468f76dda869592377e7e76e9e4b57ab08ef67138d98835592848484846040516104729493929190610e9e565b806000836040516108d79190610f91565b908152602001604051809103902090805190602001906108f8929190610a58565b507f2dec00b9b3b774aa5c5d6b2f031542e738341546531203f3b86dfa0653cafce8828260405161055f929190610f63565b7fac9b01ded77ccd0bf78da5b7f81cd2518c1292fa1c56e53dfa9335b090a471b5828486846040516104729493929190610e9e565b7f1c6f50ba03bbd5b01178fe278dbc9a1be0af600ea8e760c19d11282286b046df828260405161055f929190610f63565b7fdcfff7f6d812330d27bbec951f5cd5421587c0c4177e29ada8231d5a07f581b6828260405161055f929190610f63565b7f512d42221a0ce07c6944e848699339ff476f4229dc1a44c6c11574fb9ef28e69848385846040516104729493929190610e9e565b7fe7f5294af4fe7ce90473f14bf4b66e17cbd1aab9162c00f166ba46b599b34681828260405161055f929190610f63565b7f06caa096dd6569a98e8029142e08a5ab3b6048451beaf5211db342b10efeca4a828260405161055f929190610f63565b828054610a6490610fad565b90600052602060002090601f016020900481019282610a865760008555610acc565b82601f10610a9f57805160ff1916838001178555610acc565b82800160010185558215610acc579182015b82811115610acc578251825591602001919060010190610ab1565b50610ad8929150610adc565b5090565b5b80821115610ad85760008155600101610add565b634e487b7160e01b600052604160045260246000fd5b600082601f830112610b1857600080fd5b813567ffffffffffffffff80821115610b3357610b33610af1565b604051601f8301601f19908116603f01168101908282118183101715610b5b57610b5b610af1565b81604052838152866020858801011115610b7457600080fd5b836020870160208301376000602085830101528094505050505092915050565b600080600060608486031215610ba957600080fd5b833567ffffffffffffffff80821115610bc157600080fd5b610bcd87838801610b07565b94506020860135915080821115610be357600080fd5b610bef87838801610b07565b93506040860135915080821115610c0557600080fd5b50610c1286828701610b07565b9150509250925092565b60008060008060808587031215610c3257600080fd5b843567ffffffffffffffff80821115610c4a57600080fd5b610c5688838901610b07565b95506020870135915080821115610c6c57600080fd5b610c7888838901610b07565b94506040870135915080821115610c8e57600080fd5b610c9a88838901610b07565b93506060870135915080821115610cb057600080fd5b50610cbd87828801610b07565b91505092959194509250565b600080600080600060a08688031215610ce157600080fd5b853567ffffffffffffffff80821115610cf957600080fd5b610d0589838a01610b07565b96506020880135915080821115610d1b57600080fd5b610d2789838a01610b07565b95506040880135915080821115610d3d57600080fd5b610d4989838a01610b07565b94506060880135915080821115610d5f57600080fd5b610d6b89838a01610b07565b93506080880135915080821115610d8157600080fd5b50610d8e88828901610b07565b9150509295509295909350565b60008060408385031215610dae57600080fd5b823567ffffffffffffffff80821115610dc657600080fd5b610dd286838701610b07565b93506020850135915080821115610de857600080fd5b50610df585828601610b07565b9150509250929050565b60005b83811015610e1a578181015183820152602001610e02565b83811115610e29576000848401525b50505050565b60008151808452610e47816020860160208601610dff565b601f01601f19169290920160200192915050565b606081526000610e6e6060830186610e2f565b8281036020840152610e808186610e2f565b90508281036040840152610e948185610e2f565b9695505050505050565b608081526000610eb16080830187610e2f565b8281036020840152610ec38187610e2f565b90508281036040840152610ed78186610e2f565b90508281036060840152610eeb8185610e2f565b979650505050505050565b60a081526000610f0960a0830188610e2f565b8281036020840152610f1b8188610e2f565b90508281036040840152610f2f8187610e2f565b90508281036060840152610f438186610e2f565b90508281036080840152610f578185610e2f565b98975050505050505050565b604081526000610f766040830185610e2f565b8281036020840152610f888185610e2f565b95945050505050565b60008251610fa3818460208701610dff565b9190910192915050565b600181811c90821680610fc157607f821691505b60208210811415610fe257634e487b7160e01b600052602260045260246000fd5b5091905056fea2646970667358221220409b528d653a94898a06055b2aa3dab40dff11a033aa601653d3e67a1c1970ba64736f6c63430008090033",
  "devdoc": {
    "kind": "dev",
    "methods": {},
    "version": 1
  },
  "userdoc": {
    "kind": "user",
    "methods": {},
    "version": 1
  },
  "storageLayout": {
    "storage": [
      {
        "astId": 20,
        "contract": "contracts/facets/TridentFacet1.sol:TridentFacet1",
        "label": "_pettletIdToCid",
        "offset": 0,
        "slot": "0",
        "type": "t_mapping(t_string_memory_ptr,t_string_storage)"
      },
      {
        "astId": 24,
        "contract": "contracts/facets/TridentFacet1.sol:TridentFacet1",
        "label": "_pelletExitDetails",
        "offset": 0,
        "slot": "1",
        "type": "t_mapping(t_string_memory_ptr,t_string_storage)"
      }
    ],
    "types": {
      "t_mapping(t_string_memory_ptr,t_string_storage)": {
        "encoding": "mapping",
        "key": "t_string_memory_ptr",
        "label": "mapping(string => string)",
        "numberOfBytes": "32",
        "value": "t_string_storage"
      },
      "t_string_memory_ptr": {
        "encoding": "bytes",
        "label": "string",
        "numberOfBytes": "32"
      },
      "t_string_storage": {
        "encoding": "bytes",
        "label": "string",
        "numberOfBytes": "32"
      }
    }
  }
}